{
  "contracts/mocks/MockPensionFi.sol": {
    "MockPensionFi": {
      "abi": [
        {
          "inputs": [],
          "stateMutability": "payable",
          "type": "constructor"
        },
        {
          "inputs": [
            {
              "internalType": "uint256",
              "name": "basisPoints",
              "type": "uint256"
            },
            {
              "internalType": "uint256",
              "name": "numDays",
              "type": "uint256"
            },
            {
              "internalType": "uint256",
              "name": "weiAmount",
              "type": "uint256"
            }
          ],
          "name": "calculateInterest",
          "outputs": [
            {
              "internalType": "uint256",
              "name": "",
              "type": "uint256"
            }
          ],
          "stateMutability": "pure",
          "type": "function"
        },
        {
          "inputs": [
            {
              "internalType": "uint256",
              "name": "numDays",
              "type": "uint256"
            },
            {
              "internalType": "uint256",
              "name": "basisPoints",
              "type": "uint256"
            }
          ],
          "name": "changeLockPeriods",
          "outputs": [],
          "stateMutability": "nonpayable",
          "type": "function"
        },
        {
          "inputs": [
            {
              "internalType": "uint256",
              "name": "positionId",
              "type": "uint256"
            },
            {
              "internalType": "uint256",
              "name": "newUnlockDate",
              "type": "uint256"
            }
          ],
          "name": "changeUnlockDate",
          "outputs": [],
          "stateMutability": "nonpayable",
          "type": "function"
        },
        {
          "inputs": [
            {
              "internalType": "uint256",
              "name": "positionId",
              "type": "uint256"
            }
          ],
          "name": "closePosition",
          "outputs": [],
          "stateMutability": "nonpayable",
          "type": "function"
        },
        {
          "inputs": [],
          "name": "currentPositionId",
          "outputs": [
            {
              "internalType": "uint256",
              "name": "",
              "type": "uint256"
            }
          ],
          "stateMutability": "view",
          "type": "function"
        },
        {
          "inputs": [
            {
              "internalType": "address",
              "name": "walletAddress",
              "type": "address"
            }
          ],
          "name": "getAllPositionIdsByAddress",
          "outputs": [
            {
              "internalType": "uint256[]",
              "name": "",
              "type": "uint256[]"
            }
          ],
          "stateMutability": "view",
          "type": "function"
        },
        {
          "inputs": [
            {
              "internalType": "uint256",
              "name": "numDays",
              "type": "uint256"
            }
          ],
          "name": "getInterestRates",
          "outputs": [
            {
              "internalType": "uint256",
              "name": "",
              "type": "uint256"
            }
          ],
          "stateMutability": "view",
          "type": "function"
        },
        {
          "inputs": [],
          "name": "getLockPeriods",
          "outputs": [
            {
              "internalType": "uint256[]",
              "name": "",
              "type": "uint256[]"
            }
          ],
          "stateMutability": "view",
          "type": "function"
        },
        {
          "inputs": [
            {
              "internalType": "uint256",
              "name": "positionId",
              "type": "uint256"
            }
          ],
          "name": "getPositionById",
          "outputs": [
            {
              "components": [
                {
                  "internalType": "uint256",
                  "name": "positionId",
                  "type": "uint256"
                },
                {
                  "internalType": "address",
                  "name": "walletAddress",
                  "type": "address"
                },
                {
                  "internalType": "uint256",
                  "name": "createdDate",
                  "type": "uint256"
                },
                {
                  "internalType": "uint256",
                  "name": "unlockDate",
                  "type": "uint256"
                },
                {
                  "internalType": "uint256",
                  "name": "percentInterest",
                  "type": "uint256"
                },
                {
                  "internalType": "uint256",
                  "name": "weiStaked",
                  "type": "uint256"
                },
                {
                  "internalType": "uint256",
                  "name": "weiInterest",
                  "type": "uint256"
                },
                {
                  "internalType": "bool",
                  "name": "open",
                  "type": "bool"
                }
              ],
              "internalType": "struct MockPensionFi.Position",
              "name": "",
              "type": "tuple"
            }
          ],
          "stateMutability": "view",
          "type": "function"
        },
        {
          "inputs": [
            {
              "internalType": "uint256",
              "name": "positionId",
              "type": "uint256"
            }
          ],
          "name": "getWeiFromPosition",
          "outputs": [
            {
              "internalType": "uint256",
              "name": "",
              "type": "uint256"
            }
          ],
          "stateMutability": "view",
          "type": "function"
        },
        {
          "inputs": [
            {
              "internalType": "uint256",
              "name": "",
              "type": "uint256"
            }
          ],
          "name": "lockPeriods",
          "outputs": [
            {
              "internalType": "uint256",
              "name": "",
              "type": "uint256"
            }
          ],
          "stateMutability": "view",
          "type": "function"
        },
        {
          "inputs": [],
          "name": "owner",
          "outputs": [
            {
              "internalType": "address",
              "name": "",
              "type": "address"
            }
          ],
          "stateMutability": "view",
          "type": "function"
        },
        {
          "inputs": [
            {
              "internalType": "address",
              "name": "",
              "type": "address"
            },
            {
              "internalType": "uint256",
              "name": "",
              "type": "uint256"
            }
          ],
          "name": "positionIdsByAddress",
          "outputs": [
            {
              "internalType": "uint256",
              "name": "",
              "type": "uint256"
            }
          ],
          "stateMutability": "view",
          "type": "function"
        },
        {
          "inputs": [
            {
              "internalType": "uint256",
              "name": "",
              "type": "uint256"
            }
          ],
          "name": "positions",
          "outputs": [
            {
              "internalType": "uint256",
              "name": "positionId",
              "type": "uint256"
            },
            {
              "internalType": "address",
              "name": "walletAddress",
              "type": "address"
            },
            {
              "internalType": "uint256",
              "name": "createdDate",
              "type": "uint256"
            },
            {
              "internalType": "uint256",
              "name": "unlockDate",
              "type": "uint256"
            },
            {
              "internalType": "uint256",
              "name": "percentInterest",
              "type": "uint256"
            },
            {
              "internalType": "uint256",
              "name": "weiStaked",
              "type": "uint256"
            },
            {
              "internalType": "uint256",
              "name": "weiInterest",
              "type": "uint256"
            },
            {
              "internalType": "bool",
              "name": "open",
              "type": "bool"
            }
          ],
          "stateMutability": "view",
          "type": "function"
        },
        {
          "inputs": [
            {
              "internalType": "uint256",
              "name": "numDays",
              "type": "uint256"
            }
          ],
          "name": "stakeEther",
          "outputs": [],
          "stateMutability": "payable",
          "type": "function"
        },
        {
          "inputs": [
            {
              "internalType": "uint256",
              "name": "",
              "type": "uint256"
            }
          ],
          "name": "tiers",
          "outputs": [
            {
              "internalType": "uint256",
              "name": "",
              "type": "uint256"
            }
          ],
          "stateMutability": "view",
          "type": "function"
        },
        {
          "stateMutability": "payable",
          "type": "receive"
        }
      ],
      "evm": {
        "bytecode": {
          "linkReferences": {},
          "object": "6080604052600080546001600160a01b031916331781556009819055600c6020526102bc7f335c01f32f99d35cb64d8289b566f377b69a60a868ff865828ab37e34e93e1db556103e87fb6fee850c592782285e2afa4b9b9fe57677af9af6c836afb1b518cff893d6d36556104b07fe4423415728c49c18cd02e113656de33bf0a2c7d8797378ec80235aae0ce917a55600d80546001818101835592829052601e7fd7b6990105719101dabeb77144f2a3385c8033acd3af97e9423a695e81ad1eb59182015581548084018355605a90820155815492830190915561016d910155610d0c806100ef6000396000f3fe6080604052600436106100f75760003560e01c80638da5cb5b1161008a578063ab4185df11610059578063ab4185df14610352578063b838ec8614610382578063c7c9d05514610409578063e4f908411461042957600080fd5b80638da5cb5b1461021d57806395ad86e01461025557806399fbab8814610282578063a126d6011461033257600080fd5b806341ee13be116100c657806341ee13be146101a657806345eae373146101bb5780634c8f2a78146101db57806364db2c5b146101fb57600080fd5b8063039af9eb1461010357806305e1bd8c146101435780631131c8cd1461016357806320f9f8941461017957600080fd5b366100fe57005b600080fd5b34801561010f57600080fd5b5061013061011e366004610b5b565b600c6020526000908152604090205481565b6040519081526020015b60405180910390f35b34801561014f57600080fd5b5061013061015e366004610b74565b61043c565b34801561016f57600080fd5b5061013060095481565b34801561018557600080fd5b50610199610194366004610bbc565b61045d565b60405161013a9190610bde565b3480156101b257600080fd5b506101996104c9565b3480156101c757600080fd5b506101306101d6366004610c22565b610521565b3480156101e757600080fd5b506101306101f6366004610b5b565b610552565b34801561020757600080fd5b5061021b610216366004610c4c565b610573565b005b34801561022957600080fd5b5060005461023d906001600160a01b031681565b6040516001600160a01b03909116815260200161013a565b34801561026157600080fd5b50610130610270366004610b5b565b6000908152600c602052604090205490565b34801561028e57600080fd5b506102ed61029d366004610b5b565b600a602052600090815260409020805460018201546002830154600384015460048501546005860154600687015460079097015495966001600160a01b0390951695939492939192909160ff1688565b604080519889526001600160a01b039097166020890152958701949094526060860192909252608085015260a084015260c0830152151560e08201526101000161013a565b34801561033e57600080fd5b5061021b61034d366004610b5b565b610627565b34801561035e57600080fd5b5061013061036d366004610b5b565b6000908152600a602052604090206005015490565b34801561038e57600080fd5b506103a261039d366004610b5b565b610878565b60405161013a9190815181526020808301516001600160a01b03169082015260408083015190820152606080830151908201526080808301519082015260a0808301519082015260c0808301519082015260e0918201511515918101919091526101000190565b34801561041557600080fd5b5061021b610424366004610c4c565b610947565b61021b610437366004610b5b565b6109c0565b600061271061044b8386610c84565b6104559190610ca1565b949350505050565b6001600160a01b0381166000908152600b60209081526040918290208054835181840281018401909452808452606093928301828280156104bd57602002820191906000526020600020905b8154815260200190600101908083116104a9575b50505050509050919050565b6060600d80548060200260200160405190810160405280929190818152602001828054801561051757602002820191906000526020600020905b815481526020019060010190808311610503575b5050505050905090565b600b602052816000526040600020818154811061053d57600080fd5b90600052602060002001600091509150505481565b600d818154811061056257600080fd5b600091825260209091200154905081565b6000546001600160a01b031633146105e45760405162461bcd60e51b815260206004820152602960248201527f4f6e6c79206f776e65722063616e206d6f6469667920746865207374616b696e6044820152686720706572696f647360b81b60648201526084015b60405180910390fd5b6000828152600c6020526040812091909155600d805460018101825591527fd7b6990105719101dabeb77144f2a3385c8033acd3af97e9423a695e81ad1eb50155565b6000818152600a60205260409020600101546001600160a01b031633146106a15760405162461bcd60e51b815260206004820152602860248201527f4f6e6c79207468652063726561746f722063616e206d6f6469667920746865206044820152673837b9b4ba34b7b760c11b60648201526084016105db565b6000818152600a602052604090206007015460ff1615156001146106fc5760405162461bcd60e51b8152602060048201526012602482015271141bdcda5d1a5bdb881a5cc818db1bdcd95960721b60448201526064016105db565b6000818152600a6020526040902060078101805460ff19169055600301544211156107d9576000818152600a6020526040812060068101546005909101546107449190610cc3565b604051909150600090339083908381818185875af1925050503d8060008114610789576040519150601f19603f3d011682016040523d82523d6000602084013e61078e565b606091505b50509050806107d45760405162461bcd60e51b8152602060048201526012602482015271151c985b9cd858dd1a5bdb8819985a5b195960721b60448201526064016105db565b505050565b6000818152600a60205260408082206005015490513391908381818185875af1925050503d8060008114610829576040519150601f19603f3d011682016040523d82523d6000602084013e61082e565b606091505b50509050806108745760405162461bcd60e51b8152602060048201526012602482015271151c985b9cd858dd1a5bdb8819985a5b195960721b60448201526064016105db565b5050565b6108cb6040518061010001604052806000815260200160006001600160a01b0316815260200160008152602001600081526020016000815260200160008152602001600081526020016000151581525090565b506000908152600a60209081526040918290208251610100810184528154815260018201546001600160a01b0316928101929092526002810154928201929092526003820154606082015260048201546080820152600582015460a0820152600682015460c082015260079091015460ff16151560e082015290565b6000546001600160a01b031633146109ab5760405162461bcd60e51b815260206004820152602160248201527f4f6e6c79206f776e65722063616e206368616e676520556e6c6f636b206461746044820152606560f81b60648201526084016105db565b6000918252600a602052604090912060030155565b6000818152600c6020526040902054610a0f5760405162461bcd60e51b815260206004820152601160248201527013585c1c1a5b99c81b9bdd08199bdd5b99607a1b60448201526064016105db565b6040518061010001604052806009548152602001336001600160a01b031681526020014281526020018262015180610a479190610c84565b610a519042610cc3565b8152602001600c6000848152602001908152602001600020548152602001348152602001610a93600c600085815260200190815260200160002054843461043c565b815260016020918201819052600980546000908152600a84526040808220865181558686015181860180546001600160a01b0319166001600160a01b03909216919091179055868201516002820155606087015160038201556080870151600482015560a0870151600582015560c0870151600682015560e0909601516007909601805460ff191696151596909617909555338152600b845293842081548154808501835591865293852001929092558154909290610b53908490610cc3565b909155505050565b600060208284031215610b6d57600080fd5b5035919050565b600080600060608486031215610b8957600080fd5b505081359360208301359350604090920135919050565b80356001600160a01b0381168114610bb757600080fd5b919050565b600060208284031215610bce57600080fd5b610bd782610ba0565b9392505050565b6020808252825182820181905260009190848201906040850190845b81811015610c1657835183529284019291840191600101610bfa565b50909695505050505050565b60008060408385031215610c3557600080fd5b610c3e83610ba0565b946020939093013593505050565b60008060408385031215610c5f57600080fd5b50508035926020909101359150565b634e487b7160e01b600052601160045260246000fd5b8082028115828204841417610c9b57610c9b610c6e565b92915050565b600082610cbe57634e487b7160e01b600052601260045260246000fd5b500490565b80820180821115610c9b57610c9b610c6e56fea26469706673582212209e0dabbdd17bf5f30b9175a5baac42cba9dd582e6374a654bc701932c9ac30b264736f6c63430008110033",
          "opcodes": "PUSH1 0x80 PUSH1 0x40 MSTORE PUSH1 0x0 DUP1 SLOAD PUSH1 0x1 PUSH1 0x1 PUSH1 0xA0 SHL SUB NOT AND CALLER OR DUP2 SSTORE PUSH1 0x9 DUP2 SWAP1 SSTORE PUSH1 0xC PUSH1 0x20 MSTORE PUSH2 0x2BC PUSH32 0x335C01F32F99D35CB64D8289B566F377B69A60A868FF865828AB37E34E93E1DB SSTORE PUSH2 0x3E8 PUSH32 0xB6FEE850C592782285E2AFA4B9B9FE57677AF9AF6C836AFB1B518CFF893D6D36 SSTORE PUSH2 0x4B0 PUSH32 0xE4423415728C49C18CD02E113656DE33BF0A2C7D8797378EC80235AAE0CE917A SSTORE PUSH1 0xD DUP1 SLOAD PUSH1 0x1 DUP2 DUP2 ADD DUP4 SSTORE SWAP3 DUP3 SWAP1 MSTORE PUSH1 0x1E PUSH32 0xD7B6990105719101DABEB77144F2A3385C8033ACD3AF97E9423A695E81AD1EB5 SWAP2 DUP3 ADD SSTORE DUP2 SLOAD DUP1 DUP5 ADD DUP4 SSTORE PUSH1 0x5A SWAP1 DUP3 ADD SSTORE DUP2 SLOAD SWAP3 DUP4 ADD SWAP1 SWAP2 SSTORE PUSH2 0x16D SWAP2 ADD SSTORE PUSH2 0xD0C DUP1 PUSH2 0xEF PUSH1 0x0 CODECOPY PUSH1 0x0 RETURN INVALID PUSH1 0x80 PUSH1 0x40 MSTORE PUSH1 0x4 CALLDATASIZE LT PUSH2 0xF7 JUMPI PUSH1 0x0 CALLDATALOAD PUSH1 0xE0 SHR DUP1 PUSH4 0x8DA5CB5B GT PUSH2 0x8A JUMPI DUP1 PUSH4 0xAB4185DF GT PUSH2 0x59 JUMPI DUP1 PUSH4 0xAB4185DF EQ PUSH2 0x352 JUMPI DUP1 PUSH4 0xB838EC86 EQ PUSH2 0x382 JUMPI DUP1 PUSH4 0xC7C9D055 EQ PUSH2 0x409 JUMPI DUP1 PUSH4 0xE4F90841 EQ PUSH2 0x429 JUMPI PUSH1 0x0 DUP1 REVERT JUMPDEST DUP1 PUSH4 0x8DA5CB5B EQ PUSH2 0x21D JUMPI DUP1 PUSH4 0x95AD86E0 EQ PUSH2 0x255 JUMPI DUP1 PUSH4 0x99FBAB88 EQ PUSH2 0x282 JUMPI DUP1 PUSH4 0xA126D601 EQ PUSH2 0x332 JUMPI PUSH1 0x0 DUP1 REVERT JUMPDEST DUP1 PUSH4 0x41EE13BE GT PUSH2 0xC6 JUMPI DUP1 PUSH4 0x41EE13BE EQ PUSH2 0x1A6 JUMPI DUP1 PUSH4 0x45EAE373 EQ PUSH2 0x1BB JUMPI DUP1 PUSH4 0x4C8F2A78 EQ PUSH2 0x1DB JUMPI DUP1 PUSH4 0x64DB2C5B EQ PUSH2 0x1FB JUMPI PUSH1 0x0 DUP1 REVERT JUMPDEST DUP1 PUSH4 0x39AF9EB EQ PUSH2 0x103 JUMPI DUP1 PUSH4 0x5E1BD8C EQ PUSH2 0x143 JUMPI DUP1 PUSH4 0x1131C8CD EQ PUSH2 0x163 JUMPI DUP1 PUSH4 0x20F9F894 EQ PUSH2 0x179 JUMPI PUSH1 0x0 DUP1 REVERT JUMPDEST CALLDATASIZE PUSH2 0xFE JUMPI STOP JUMPDEST PUSH1 0x0 DUP1 REVERT JUMPDEST CALLVALUE DUP1 ISZERO PUSH2 0x10F JUMPI PUSH1 0x0 DUP1 REVERT JUMPDEST POP PUSH2 0x130 PUSH2 0x11E CALLDATASIZE PUSH1 0x4 PUSH2 0xB5B JUMP JUMPDEST PUSH1 0xC PUSH1 0x20 MSTORE PUSH1 0x0 SWAP1 DUP2 MSTORE PUSH1 0x40 SWAP1 KECCAK256 SLOAD DUP2 JUMP JUMPDEST PUSH1 0x40 MLOAD SWAP1 DUP2 MSTORE PUSH1 0x20 ADD JUMPDEST PUSH1 0x40 MLOAD DUP1 SWAP2 SUB SWAP1 RETURN JUMPDEST CALLVALUE DUP1 ISZERO PUSH2 0x14F JUMPI PUSH1 0x0 DUP1 REVERT JUMPDEST POP PUSH2 0x130 PUSH2 0x15E CALLDATASIZE PUSH1 0x4 PUSH2 0xB74 JUMP JUMPDEST PUSH2 0x43C JUMP JUMPDEST CALLVALUE DUP1 ISZERO PUSH2 0x16F JUMPI PUSH1 0x0 DUP1 REVERT JUMPDEST POP PUSH2 0x130 PUSH1 0x9 SLOAD DUP2 JUMP JUMPDEST CALLVALUE DUP1 ISZERO PUSH2 0x185 JUMPI PUSH1 0x0 DUP1 REVERT JUMPDEST POP PUSH2 0x199 PUSH2 0x194 CALLDATASIZE PUSH1 0x4 PUSH2 0xBBC JUMP JUMPDEST PUSH2 0x45D JUMP JUMPDEST PUSH1 0x40 MLOAD PUSH2 0x13A SWAP2 SWAP1 PUSH2 0xBDE JUMP JUMPDEST CALLVALUE DUP1 ISZERO PUSH2 0x1B2 JUMPI PUSH1 0x0 DUP1 REVERT JUMPDEST POP PUSH2 0x199 PUSH2 0x4C9 JUMP JUMPDEST CALLVALUE DUP1 ISZERO PUSH2 0x1C7 JUMPI PUSH1 0x0 DUP1 REVERT JUMPDEST POP PUSH2 0x130 PUSH2 0x1D6 CALLDATASIZE PUSH1 0x4 PUSH2 0xC22 JUMP JUMPDEST PUSH2 0x521 JUMP JUMPDEST CALLVALUE DUP1 ISZERO PUSH2 0x1E7 JUMPI PUSH1 0x0 DUP1 REVERT JUMPDEST POP PUSH2 0x130 PUSH2 0x1F6 CALLDATASIZE PUSH1 0x4 PUSH2 0xB5B JUMP JUMPDEST PUSH2 0x552 JUMP JUMPDEST CALLVALUE DUP1 ISZERO PUSH2 0x207 JUMPI PUSH1 0x0 DUP1 REVERT JUMPDEST POP PUSH2 0x21B PUSH2 0x216 CALLDATASIZE PUSH1 0x4 PUSH2 0xC4C JUMP JUMPDEST PUSH2 0x573 JUMP JUMPDEST STOP JUMPDEST CALLVALUE DUP1 ISZERO PUSH2 0x229 JUMPI PUSH1 0x0 DUP1 REVERT JUMPDEST POP PUSH1 0x0 SLOAD PUSH2 0x23D SWAP1 PUSH1 0x1 PUSH1 0x1 PUSH1 0xA0 SHL SUB AND DUP2 JUMP JUMPDEST PUSH1 0x40 MLOAD PUSH1 0x1 PUSH1 0x1 PUSH1 0xA0 SHL SUB SWAP1 SWAP2 AND DUP2 MSTORE PUSH1 0x20 ADD PUSH2 0x13A JUMP JUMPDEST CALLVALUE DUP1 ISZERO PUSH2 0x261 JUMPI PUSH1 0x0 DUP1 REVERT JUMPDEST POP PUSH2 0x130 PUSH2 0x270 CALLDATASIZE PUSH1 0x4 PUSH2 0xB5B JUMP JUMPDEST PUSH1 0x0 SWAP1 DUP2 MSTORE PUSH1 0xC PUSH1 0x20 MSTORE PUSH1 0x40 SWAP1 KECCAK256 SLOAD SWAP1 JUMP JUMPDEST CALLVALUE DUP1 ISZERO PUSH2 0x28E JUMPI PUSH1 0x0 DUP1 REVERT JUMPDEST POP PUSH2 0x2ED PUSH2 0x29D CALLDATASIZE PUSH1 0x4 PUSH2 0xB5B JUMP JUMPDEST PUSH1 0xA PUSH1 0x20 MSTORE PUSH1 0x0 SWAP1 DUP2 MSTORE PUSH1 0x40 SWAP1 KECCAK256 DUP1 SLOAD PUSH1 0x1 DUP3 ADD SLOAD PUSH1 0x2 DUP4 ADD SLOAD PUSH1 0x3 DUP5 ADD SLOAD PUSH1 0x4 DUP6 ADD SLOAD PUSH1 0x5 DUP7 ADD SLOAD PUSH1 0x6 DUP8 ADD SLOAD PUSH1 0x7 SWAP1 SWAP8 ADD SLOAD SWAP6 SWAP7 PUSH1 0x1 PUSH1 0x1 PUSH1 0xA0 SHL SUB SWAP1 SWAP6 AND SWAP6 SWAP4 SWAP5 SWAP3 SWAP4 SWAP2 SWAP3 SWAP1 SWAP2 PUSH1 0xFF AND DUP9 JUMP JUMPDEST PUSH1 0x40 DUP1 MLOAD SWAP9 DUP10 MSTORE PUSH1 0x1 PUSH1 0x1 PUSH1 0xA0 SHL SUB SWAP1 SWAP8 AND PUSH1 0x20 DUP10 ADD MSTORE SWAP6 DUP8 ADD SWAP5 SWAP1 SWAP5 MSTORE PUSH1 0x60 DUP7 ADD SWAP3 SWAP1 SWAP3 MSTORE PUSH1 0x80 DUP6 ADD MSTORE PUSH1 0xA0 DUP5 ADD MSTORE PUSH1 0xC0 DUP4 ADD MSTORE ISZERO ISZERO PUSH1 0xE0 DUP3 ADD MSTORE PUSH2 0x100 ADD PUSH2 0x13A JUMP JUMPDEST CALLVALUE DUP1 ISZERO PUSH2 0x33E JUMPI PUSH1 0x0 DUP1 REVERT JUMPDEST POP PUSH2 0x21B PUSH2 0x34D CALLDATASIZE PUSH1 0x4 PUSH2 0xB5B JUMP JUMPDEST PUSH2 0x627 JUMP JUMPDEST CALLVALUE DUP1 ISZERO PUSH2 0x35E JUMPI PUSH1 0x0 DUP1 REVERT JUMPDEST POP PUSH2 0x130 PUSH2 0x36D CALLDATASIZE PUSH1 0x4 PUSH2 0xB5B JUMP JUMPDEST PUSH1 0x0 SWAP1 DUP2 MSTORE PUSH1 0xA PUSH1 0x20 MSTORE PUSH1 0x40 SWAP1 KECCAK256 PUSH1 0x5 ADD SLOAD SWAP1 JUMP JUMPDEST CALLVALUE DUP1 ISZERO PUSH2 0x38E JUMPI PUSH1 0x0 DUP1 REVERT JUMPDEST POP PUSH2 0x3A2 PUSH2 0x39D CALLDATASIZE PUSH1 0x4 PUSH2 0xB5B JUMP JUMPDEST PUSH2 0x878 JUMP JUMPDEST PUSH1 0x40 MLOAD PUSH2 0x13A SWAP2 SWAP1 DUP2 MLOAD DUP2 MSTORE PUSH1 0x20 DUP1 DUP4 ADD MLOAD PUSH1 0x1 PUSH1 0x1 PUSH1 0xA0 SHL SUB AND SWAP1 DUP3 ADD MSTORE PUSH1 0x40 DUP1 DUP4 ADD MLOAD SWAP1 DUP3 ADD MSTORE PUSH1 0x60 DUP1 DUP4 ADD MLOAD SWAP1 DUP3 ADD MSTORE PUSH1 0x80 DUP1 DUP4 ADD MLOAD SWAP1 DUP3 ADD MSTORE PUSH1 0xA0 DUP1 DUP4 ADD MLOAD SWAP1 DUP3 ADD MSTORE PUSH1 0xC0 DUP1 DUP4 ADD MLOAD SWAP1 DUP3 ADD MSTORE PUSH1 0xE0 SWAP2 DUP3 ADD MLOAD ISZERO ISZERO SWAP2 DUP2 ADD SWAP2 SWAP1 SWAP2 MSTORE PUSH2 0x100 ADD SWAP1 JUMP JUMPDEST CALLVALUE DUP1 ISZERO PUSH2 0x415 JUMPI PUSH1 0x0 DUP1 REVERT JUMPDEST POP PUSH2 0x21B PUSH2 0x424 CALLDATASIZE PUSH1 0x4 PUSH2 0xC4C JUMP JUMPDEST PUSH2 0x947 JUMP JUMPDEST PUSH2 0x21B PUSH2 0x437 CALLDATASIZE PUSH1 0x4 PUSH2 0xB5B JUMP JUMPDEST PUSH2 0x9C0 JUMP JUMPDEST PUSH1 0x0 PUSH2 0x2710 PUSH2 0x44B DUP4 DUP7 PUSH2 0xC84 JUMP JUMPDEST PUSH2 0x455 SWAP2 SWAP1 PUSH2 0xCA1 JUMP JUMPDEST SWAP5 SWAP4 POP POP POP POP JUMP JUMPDEST PUSH1 0x1 PUSH1 0x1 PUSH1 0xA0 SHL SUB DUP2 AND PUSH1 0x0 SWAP1 DUP2 MSTORE PUSH1 0xB PUSH1 0x20 SWAP1 DUP2 MSTORE PUSH1 0x40 SWAP2 DUP3 SWAP1 KECCAK256 DUP1 SLOAD DUP4 MLOAD DUP2 DUP5 MUL DUP2 ADD DUP5 ADD SWAP1 SWAP5 MSTORE DUP1 DUP5 MSTORE PUSH1 0x60 SWAP4 SWAP3 DUP4 ADD DUP3 DUP3 DUP1 ISZERO PUSH2 0x4BD JUMPI PUSH1 0x20 MUL DUP3 ADD SWAP2 SWAP1 PUSH1 0x0 MSTORE PUSH1 0x20 PUSH1 0x0 KECCAK256 SWAP1 JUMPDEST DUP2 SLOAD DUP2 MSTORE PUSH1 0x20 ADD SWAP1 PUSH1 0x1 ADD SWAP1 DUP1 DUP4 GT PUSH2 0x4A9 JUMPI JUMPDEST POP POP POP POP POP SWAP1 POP SWAP2 SWAP1 POP JUMP JUMPDEST PUSH1 0x60 PUSH1 0xD DUP1 SLOAD DUP1 PUSH1 0x20 MUL PUSH1 0x20 ADD PUSH1 0x40 MLOAD SWAP1 DUP2 ADD PUSH1 0x40 MSTORE DUP1 SWAP3 SWAP2 SWAP1 DUP2 DUP2 MSTORE PUSH1 0x20 ADD DUP3 DUP1 SLOAD DUP1 ISZERO PUSH2 0x517 JUMPI PUSH1 0x20 MUL DUP3 ADD SWAP2 SWAP1 PUSH1 0x0 MSTORE PUSH1 0x20 PUSH1 0x0 KECCAK256 SWAP1 JUMPDEST DUP2 SLOAD DUP2 MSTORE PUSH1 0x20 ADD SWAP1 PUSH1 0x1 ADD SWAP1 DUP1 DUP4 GT PUSH2 0x503 JUMPI JUMPDEST POP POP POP POP POP SWAP1 POP SWAP1 JUMP JUMPDEST PUSH1 0xB PUSH1 0x20 MSTORE DUP2 PUSH1 0x0 MSTORE PUSH1 0x40 PUSH1 0x0 KECCAK256 DUP2 DUP2 SLOAD DUP2 LT PUSH2 0x53D JUMPI PUSH1 0x0 DUP1 REVERT JUMPDEST SWAP1 PUSH1 0x0 MSTORE PUSH1 0x20 PUSH1 0x0 KECCAK256 ADD PUSH1 0x0 SWAP2 POP SWAP2 POP POP SLOAD DUP2 JUMP JUMPDEST PUSH1 0xD DUP2 DUP2 SLOAD DUP2 LT PUSH2 0x562 JUMPI PUSH1 0x0 DUP1 REVERT JUMPDEST PUSH1 0x0 SWAP2 DUP3 MSTORE PUSH1 0x20 SWAP1 SWAP2 KECCAK256 ADD SLOAD SWAP1 POP DUP2 JUMP JUMPDEST PUSH1 0x0 SLOAD PUSH1 0x1 PUSH1 0x1 PUSH1 0xA0 SHL SUB AND CALLER EQ PUSH2 0x5E4 JUMPI PUSH1 0x40 MLOAD PUSH3 0x461BCD PUSH1 0xE5 SHL DUP2 MSTORE PUSH1 0x20 PUSH1 0x4 DUP3 ADD MSTORE PUSH1 0x29 PUSH1 0x24 DUP3 ADD MSTORE PUSH32 0x4F6E6C79206F776E65722063616E206D6F6469667920746865207374616B696E PUSH1 0x44 DUP3 ADD MSTORE PUSH9 0x6720706572696F6473 PUSH1 0xB8 SHL PUSH1 0x64 DUP3 ADD MSTORE PUSH1 0x84 ADD JUMPDEST PUSH1 0x40 MLOAD DUP1 SWAP2 SUB SWAP1 REVERT JUMPDEST PUSH1 0x0 DUP3 DUP2 MSTORE PUSH1 0xC PUSH1 0x20 MSTORE PUSH1 0x40 DUP2 KECCAK256 SWAP2 SWAP1 SWAP2 SSTORE PUSH1 0xD DUP1 SLOAD PUSH1 0x1 DUP2 ADD DUP3 SSTORE SWAP2 MSTORE PUSH32 0xD7B6990105719101DABEB77144F2A3385C8033ACD3AF97E9423A695E81AD1EB5 ADD SSTORE JUMP JUMPDEST PUSH1 0x0 DUP2 DUP2 MSTORE PUSH1 0xA PUSH1 0x20 MSTORE PUSH1 0x40 SWAP1 KECCAK256 PUSH1 0x1 ADD SLOAD PUSH1 0x1 PUSH1 0x1 PUSH1 0xA0 SHL SUB AND CALLER EQ PUSH2 0x6A1 JUMPI PUSH1 0x40 MLOAD PUSH3 0x461BCD PUSH1 0xE5 SHL DUP2 MSTORE PUSH1 0x20 PUSH1 0x4 DUP3 ADD MSTORE PUSH1 0x28 PUSH1 0x24 DUP3 ADD MSTORE PUSH32 0x4F6E6C79207468652063726561746F722063616E206D6F646966792074686520 PUSH1 0x44 DUP3 ADD MSTORE PUSH8 0x3837B9B4BA34B7B7 PUSH1 0xC1 SHL PUSH1 0x64 DUP3 ADD MSTORE PUSH1 0x84 ADD PUSH2 0x5DB JUMP JUMPDEST PUSH1 0x0 DUP2 DUP2 MSTORE PUSH1 0xA PUSH1 0x20 MSTORE PUSH1 0x40 SWAP1 KECCAK256 PUSH1 0x7 ADD SLOAD PUSH1 0xFF AND ISZERO ISZERO PUSH1 0x1 EQ PUSH2 0x6FC JUMPI PUSH1 0x40 MLOAD PUSH3 0x461BCD PUSH1 0xE5 SHL DUP2 MSTORE PUSH1 0x20 PUSH1 0x4 DUP3 ADD MSTORE PUSH1 0x12 PUSH1 0x24 DUP3 ADD MSTORE PUSH18 0x141BDCDA5D1A5BDB881A5CC818DB1BDCD959 PUSH1 0x72 SHL PUSH1 0x44 DUP3 ADD MSTORE PUSH1 0x64 ADD PUSH2 0x5DB JUMP JUMPDEST PUSH1 0x0 DUP2 DUP2 MSTORE PUSH1 0xA PUSH1 0x20 MSTORE PUSH1 0x40 SWAP1 KECCAK256 PUSH1 0x7 DUP2 ADD DUP1 SLOAD PUSH1 0xFF NOT AND SWAP1 SSTORE PUSH1 0x3 ADD SLOAD TIMESTAMP GT ISZERO PUSH2 0x7D9 JUMPI PUSH1 0x0 DUP2 DUP2 MSTORE PUSH1 0xA PUSH1 0x20 MSTORE PUSH1 0x40 DUP2 KECCAK256 PUSH1 0x6 DUP2 ADD SLOAD PUSH1 0x5 SWAP1 SWAP2 ADD SLOAD PUSH2 0x744 SWAP2 SWAP1 PUSH2 0xCC3 JUMP JUMPDEST PUSH1 0x40 MLOAD SWAP1 SWAP2 POP PUSH1 0x0 SWAP1 CALLER SWAP1 DUP4 SWAP1 DUP4 DUP2 DUP2 DUP2 DUP6 DUP8 GAS CALL SWAP3 POP POP POP RETURNDATASIZE DUP1 PUSH1 0x0 DUP2 EQ PUSH2 0x789 JUMPI PUSH1 0x40 MLOAD SWAP2 POP PUSH1 0x1F NOT PUSH1 0x3F RETURNDATASIZE ADD AND DUP3 ADD PUSH1 0x40 MSTORE RETURNDATASIZE DUP3 MSTORE RETURNDATASIZE PUSH1 0x0 PUSH1 0x20 DUP5 ADD RETURNDATACOPY PUSH2 0x78E JUMP JUMPDEST PUSH1 0x60 SWAP2 POP JUMPDEST POP POP SWAP1 POP DUP1 PUSH2 0x7D4 JUMPI PUSH1 0x40 MLOAD PUSH3 0x461BCD PUSH1 0xE5 SHL DUP2 MSTORE PUSH1 0x20 PUSH1 0x4 DUP3 ADD MSTORE PUSH1 0x12 PUSH1 0x24 DUP3 ADD MSTORE PUSH18 0x151C985B9CD858DD1A5BDB8819985A5B1959 PUSH1 0x72 SHL PUSH1 0x44 DUP3 ADD MSTORE PUSH1 0x64 ADD PUSH2 0x5DB JUMP JUMPDEST POP POP POP JUMP JUMPDEST PUSH1 0x0 DUP2 DUP2 MSTORE PUSH1 0xA PUSH1 0x20 MSTORE PUSH1 0x40 DUP1 DUP3 KECCAK256 PUSH1 0x5 ADD SLOAD SWAP1 MLOAD CALLER SWAP2 SWAP1 DUP4 DUP2 DUP2 DUP2 DUP6 DUP8 GAS CALL SWAP3 POP POP POP RETURNDATASIZE DUP1 PUSH1 0x0 DUP2 EQ PUSH2 0x829 JUMPI PUSH1 0x40 MLOAD SWAP2 POP PUSH1 0x1F NOT PUSH1 0x3F RETURNDATASIZE ADD AND DUP3 ADD PUSH1 0x40 MSTORE RETURNDATASIZE DUP3 MSTORE RETURNDATASIZE PUSH1 0x0 PUSH1 0x20 DUP5 ADD RETURNDATACOPY PUSH2 0x82E JUMP JUMPDEST PUSH1 0x60 SWAP2 POP JUMPDEST POP POP SWAP1 POP DUP1 PUSH2 0x874 JUMPI PUSH1 0x40 MLOAD PUSH3 0x461BCD PUSH1 0xE5 SHL DUP2 MSTORE PUSH1 0x20 PUSH1 0x4 DUP3 ADD MSTORE PUSH1 0x12 PUSH1 0x24 DUP3 ADD MSTORE PUSH18 0x151C985B9CD858DD1A5BDB8819985A5B1959 PUSH1 0x72 SHL PUSH1 0x44 DUP3 ADD MSTORE PUSH1 0x64 ADD PUSH2 0x5DB JUMP JUMPDEST POP POP JUMP JUMPDEST PUSH2 0x8CB PUSH1 0x40 MLOAD DUP1 PUSH2 0x100 ADD PUSH1 0x40 MSTORE DUP1 PUSH1 0x0 DUP2 MSTORE PUSH1 0x20 ADD PUSH1 0x0 PUSH1 0x1 PUSH1 0x1 PUSH1 0xA0 SHL SUB AND DUP2 MSTORE PUSH1 0x20 ADD PUSH1 0x0 DUP2 MSTORE PUSH1 0x20 ADD PUSH1 0x0 DUP2 MSTORE PUSH1 0x20 ADD PUSH1 0x0 DUP2 MSTORE PUSH1 0x20 ADD PUSH1 0x0 DUP2 MSTORE PUSH1 0x20 ADD PUSH1 0x0 DUP2 MSTORE PUSH1 0x20 ADD PUSH1 0x0 ISZERO ISZERO DUP2 MSTORE POP SWAP1 JUMP JUMPDEST POP PUSH1 0x0 SWAP1 DUP2 MSTORE PUSH1 0xA PUSH1 0x20 SWAP1 DUP2 MSTORE PUSH1 0x40 SWAP2 DUP3 SWAP1 KECCAK256 DUP3 MLOAD PUSH2 0x100 DUP2 ADD DUP5 MSTORE DUP2 SLOAD DUP2 MSTORE PUSH1 0x1 DUP3 ADD SLOAD PUSH1 0x1 PUSH1 0x1 PUSH1 0xA0 SHL SUB AND SWAP3 DUP2 ADD SWAP3 SWAP1 SWAP3 MSTORE PUSH1 0x2 DUP2 ADD SLOAD SWAP3 DUP3 ADD SWAP3 SWAP1 SWAP3 MSTORE PUSH1 0x3 DUP3 ADD SLOAD PUSH1 0x60 DUP3 ADD MSTORE PUSH1 0x4 DUP3 ADD SLOAD PUSH1 0x80 DUP3 ADD MSTORE PUSH1 0x5 DUP3 ADD SLOAD PUSH1 0xA0 DUP3 ADD MSTORE PUSH1 0x6 DUP3 ADD SLOAD PUSH1 0xC0 DUP3 ADD MSTORE PUSH1 0x7 SWAP1 SWAP2 ADD SLOAD PUSH1 0xFF AND ISZERO ISZERO PUSH1 0xE0 DUP3 ADD MSTORE SWAP1 JUMP JUMPDEST PUSH1 0x0 SLOAD PUSH1 0x1 PUSH1 0x1 PUSH1 0xA0 SHL SUB AND CALLER EQ PUSH2 0x9AB JUMPI PUSH1 0x40 MLOAD PUSH3 0x461BCD PUSH1 0xE5 SHL DUP2 MSTORE PUSH1 0x20 PUSH1 0x4 DUP3 ADD MSTORE PUSH1 0x21 PUSH1 0x24 DUP3 ADD MSTORE PUSH32 0x4F6E6C79206F776E65722063616E206368616E676520556E6C6F636B20646174 PUSH1 0x44 DUP3 ADD MSTORE PUSH1 0x65 PUSH1 0xF8 SHL PUSH1 0x64 DUP3 ADD MSTORE PUSH1 0x84 ADD PUSH2 0x5DB JUMP JUMPDEST PUSH1 0x0 SWAP2 DUP3 MSTORE PUSH1 0xA PUSH1 0x20 MSTORE PUSH1 0x40 SWAP1 SWAP2 KECCAK256 PUSH1 0x3 ADD SSTORE JUMP JUMPDEST PUSH1 0x0 DUP2 DUP2 MSTORE PUSH1 0xC PUSH1 0x20 MSTORE PUSH1 0x40 SWAP1 KECCAK256 SLOAD PUSH2 0xA0F JUMPI PUSH1 0x40 MLOAD PUSH3 0x461BCD PUSH1 0xE5 SHL DUP2 MSTORE PUSH1 0x20 PUSH1 0x4 DUP3 ADD MSTORE PUSH1 0x11 PUSH1 0x24 DUP3 ADD MSTORE PUSH17 0x13585C1C1A5B99C81B9BDD08199BDD5B99 PUSH1 0x7A SHL PUSH1 0x44 DUP3 ADD MSTORE PUSH1 0x64 ADD PUSH2 0x5DB JUMP JUMPDEST PUSH1 0x40 MLOAD DUP1 PUSH2 0x100 ADD PUSH1 0x40 MSTORE DUP1 PUSH1 0x9 SLOAD DUP2 MSTORE PUSH1 0x20 ADD CALLER PUSH1 0x1 PUSH1 0x1 PUSH1 0xA0 SHL SUB AND DUP2 MSTORE PUSH1 0x20 ADD TIMESTAMP DUP2 MSTORE PUSH1 0x20 ADD DUP3 PUSH3 0x15180 PUSH2 0xA47 SWAP2 SWAP1 PUSH2 0xC84 JUMP JUMPDEST PUSH2 0xA51 SWAP1 TIMESTAMP PUSH2 0xCC3 JUMP JUMPDEST DUP2 MSTORE PUSH1 0x20 ADD PUSH1 0xC PUSH1 0x0 DUP5 DUP2 MSTORE PUSH1 0x20 ADD SWAP1 DUP2 MSTORE PUSH1 0x20 ADD PUSH1 0x0 KECCAK256 SLOAD DUP2 MSTORE PUSH1 0x20 ADD CALLVALUE DUP2 MSTORE PUSH1 0x20 ADD PUSH2 0xA93 PUSH1 0xC PUSH1 0x0 DUP6 DUP2 MSTORE PUSH1 0x20 ADD SWAP1 DUP2 MSTORE PUSH1 0x20 ADD PUSH1 0x0 KECCAK256 SLOAD DUP5 CALLVALUE PUSH2 0x43C JUMP JUMPDEST DUP2 MSTORE PUSH1 0x1 PUSH1 0x20 SWAP2 DUP3 ADD DUP2 SWAP1 MSTORE PUSH1 0x9 DUP1 SLOAD PUSH1 0x0 SWAP1 DUP2 MSTORE PUSH1 0xA DUP5 MSTORE PUSH1 0x40 DUP1 DUP3 KECCAK256 DUP7 MLOAD DUP2 SSTORE DUP7 DUP7 ADD MLOAD DUP2 DUP7 ADD DUP1 SLOAD PUSH1 0x1 PUSH1 0x1 PUSH1 0xA0 SHL SUB NOT AND PUSH1 0x1 PUSH1 0x1 PUSH1 0xA0 SHL SUB SWAP1 SWAP3 AND SWAP2 SWAP1 SWAP2 OR SWAP1 SSTORE DUP7 DUP3 ADD MLOAD PUSH1 0x2 DUP3 ADD SSTORE PUSH1 0x60 DUP8 ADD MLOAD PUSH1 0x3 DUP3 ADD SSTORE PUSH1 0x80 DUP8 ADD MLOAD PUSH1 0x4 DUP3 ADD SSTORE PUSH1 0xA0 DUP8 ADD MLOAD PUSH1 0x5 DUP3 ADD SSTORE PUSH1 0xC0 DUP8 ADD MLOAD PUSH1 0x6 DUP3 ADD SSTORE PUSH1 0xE0 SWAP1 SWAP7 ADD MLOAD PUSH1 0x7 SWAP1 SWAP7 ADD DUP1 SLOAD PUSH1 0xFF NOT AND SWAP7 ISZERO ISZERO SWAP7 SWAP1 SWAP7 OR SWAP1 SWAP6 SSTORE CALLER DUP2 MSTORE PUSH1 0xB DUP5 MSTORE SWAP4 DUP5 KECCAK256 DUP2 SLOAD DUP2 SLOAD DUP1 DUP6 ADD DUP4 SSTORE SWAP2 DUP7 MSTORE SWAP4 DUP6 KECCAK256 ADD SWAP3 SWAP1 SWAP3 SSTORE DUP2 SLOAD SWAP1 SWAP3 SWAP1 PUSH2 0xB53 SWAP1 DUP5 SWAP1 PUSH2 0xCC3 JUMP JUMPDEST SWAP1 SWAP2 SSTORE POP POP POP JUMP JUMPDEST PUSH1 0x0 PUSH1 0x20 DUP3 DUP5 SUB SLT ISZERO PUSH2 0xB6D JUMPI PUSH1 0x0 DUP1 REVERT JUMPDEST POP CALLDATALOAD SWAP2 SWAP1 POP JUMP JUMPDEST PUSH1 0x0 DUP1 PUSH1 0x0 PUSH1 0x60 DUP5 DUP7 SUB SLT ISZERO PUSH2 0xB89 JUMPI PUSH1 0x0 DUP1 REVERT JUMPDEST POP POP DUP2 CALLDATALOAD SWAP4 PUSH1 0x20 DUP4 ADD CALLDATALOAD SWAP4 POP PUSH1 0x40 SWAP1 SWAP3 ADD CALLDATALOAD SWAP2 SWAP1 POP JUMP JUMPDEST DUP1 CALLDATALOAD PUSH1 0x1 PUSH1 0x1 PUSH1 0xA0 SHL SUB DUP2 AND DUP2 EQ PUSH2 0xBB7 JUMPI PUSH1 0x0 DUP1 REVERT JUMPDEST SWAP2 SWAP1 POP JUMP JUMPDEST PUSH1 0x0 PUSH1 0x20 DUP3 DUP5 SUB SLT ISZERO PUSH2 0xBCE JUMPI PUSH1 0x0 DUP1 REVERT JUMPDEST PUSH2 0xBD7 DUP3 PUSH2 0xBA0 JUMP JUMPDEST SWAP4 SWAP3 POP POP POP JUMP JUMPDEST PUSH1 0x20 DUP1 DUP3 MSTORE DUP3 MLOAD DUP3 DUP3 ADD DUP2 SWAP1 MSTORE PUSH1 0x0 SWAP2 SWAP1 DUP5 DUP3 ADD SWAP1 PUSH1 0x40 DUP6 ADD SWAP1 DUP5 JUMPDEST DUP2 DUP2 LT ISZERO PUSH2 0xC16 JUMPI DUP4 MLOAD DUP4 MSTORE SWAP3 DUP5 ADD SWAP3 SWAP2 DUP5 ADD SWAP2 PUSH1 0x1 ADD PUSH2 0xBFA JUMP JUMPDEST POP SWAP1 SWAP7 SWAP6 POP POP POP POP POP POP JUMP JUMPDEST PUSH1 0x0 DUP1 PUSH1 0x40 DUP4 DUP6 SUB SLT ISZERO PUSH2 0xC35 JUMPI PUSH1 0x0 DUP1 REVERT JUMPDEST PUSH2 0xC3E DUP4 PUSH2 0xBA0 JUMP JUMPDEST SWAP5 PUSH1 0x20 SWAP4 SWAP1 SWAP4 ADD CALLDATALOAD SWAP4 POP POP POP JUMP JUMPDEST PUSH1 0x0 DUP1 PUSH1 0x40 DUP4 DUP6 SUB SLT ISZERO PUSH2 0xC5F JUMPI PUSH1 0x0 DUP1 REVERT JUMPDEST POP POP DUP1 CALLDATALOAD SWAP3 PUSH1 0x20 SWAP1 SWAP2 ADD CALLDATALOAD SWAP2 POP JUMP JUMPDEST PUSH4 0x4E487B71 PUSH1 0xE0 SHL PUSH1 0x0 MSTORE PUSH1 0x11 PUSH1 0x4 MSTORE PUSH1 0x24 PUSH1 0x0 REVERT JUMPDEST DUP1 DUP3 MUL DUP2 ISZERO DUP3 DUP3 DIV DUP5 EQ OR PUSH2 0xC9B JUMPI PUSH2 0xC9B PUSH2 0xC6E JUMP JUMPDEST SWAP3 SWAP2 POP POP JUMP JUMPDEST PUSH1 0x0 DUP3 PUSH2 0xCBE JUMPI PUSH4 0x4E487B71 PUSH1 0xE0 SHL PUSH1 0x0 MSTORE PUSH1 0x12 PUSH1 0x4 MSTORE PUSH1 0x24 PUSH1 0x0 REVERT JUMPDEST POP DIV SWAP1 JUMP JUMPDEST DUP1 DUP3 ADD DUP1 DUP3 GT ISZERO PUSH2 0xC9B JUMPI PUSH2 0xC9B PUSH2 0xC6E JUMP INVALID LOG2 PUSH5 0x6970667358 0x22 SLT KECCAK256 SWAP15 0xD 0xAB 0xBD 0xD1 PUSH28 0xF5F30B9175A5BAAC42CBA9DD582E6374A654BC701932C9AC30B26473 PUSH16 0x6C634300081100330000000000000000 "
        },
        "methodIdentifiers": {
          "calculateInterest(uint256,uint256,uint256)": "05e1bd8c",
          "changeLockPeriods(uint256,uint256)": "64db2c5b",
          "changeUnlockDate(uint256,uint256)": "c7c9d055",
          "closePosition(uint256)": "a126d601",
          "currentPositionId()": "1131c8cd",
          "getAllPositionIdsByAddress(address)": "20f9f894",
          "getInterestRates(uint256)": "95ad86e0",
          "getLockPeriods()": "41ee13be",
          "getPositionById(uint256)": "b838ec86",
          "getWeiFromPosition(uint256)": "ab4185df",
          "lockPeriods(uint256)": "4c8f2a78",
          "owner()": "8da5cb5b",
          "positionIdsByAddress(address,uint256)": "45eae373",
          "positions(uint256)": "99fbab88",
          "stakeEther(uint256)": "e4f90841",
          "tiers(uint256)": "039af9eb"
        }
      }
    }
  }
}