{
  "_format": "hh-sol-artifact-1",
  "contractName": "NFTMarketplace",
  "sourceName": "contracts/NFTMarketplace.sol",
  "abi": [
    {
      "inputs": [],
      "stateMutability": "nonpayable",
      "type": "constructor"
    },
    {
      "anonymous": false,
      "inputs": [
        {
          "indexed": true,
          "internalType": "address",
          "name": "owner",
          "type": "address"
        },
        {
          "indexed": true,
          "internalType": "address",
          "name": "approved",
          "type": "address"
        },
        {
          "indexed": true,
          "internalType": "uint256",
          "name": "tokenId",
          "type": "uint256"
        }
      ],
      "name": "Approval",
      "type": "event"
    },
    {
      "anonymous": false,
      "inputs": [
        {
          "indexed": true,
          "internalType": "address",
          "name": "owner",
          "type": "address"
        },
        {
          "indexed": true,
          "internalType": "address",
          "name": "operator",
          "type": "address"
        },
        {
          "indexed": false,
          "internalType": "bool",
          "name": "approved",
          "type": "bool"
        }
      ],
      "name": "ApprovalForAll",
      "type": "event"
    },
    {
      "anonymous": false,
      "inputs": [
        {
          "indexed": true,
          "internalType": "uint256",
          "name": "tokenId",
          "type": "uint256"
        },
        {
          "indexed": false,
          "internalType": "address",
          "name": "seller",
          "type": "address"
        },
        {
          "indexed": false,
          "internalType": "address",
          "name": "owner",
          "type": "address"
        },
        {
          "indexed": false,
          "internalType": "bool",
          "name": "sold",
          "type": "bool"
        }
      ],
      "name": "MarketItemCreated",
      "type": "event"
    },
    {
      "anonymous": false,
      "inputs": [
        {
          "indexed": true,
          "internalType": "address",
          "name": "from",
          "type": "address"
        },
        {
          "indexed": true,
          "internalType": "address",
          "name": "to",
          "type": "address"
        },
        {
          "indexed": true,
          "internalType": "uint256",
          "name": "tokenId",
          "type": "uint256"
        }
      ],
      "name": "Transfer",
      "type": "event"
    },
    {
      "inputs": [
        {
          "internalType": "address",
          "name": "to",
          "type": "address"
        },
        {
          "internalType": "uint256",
          "name": "tokenId",
          "type": "uint256"
        }
      ],
      "name": "approve",
      "outputs": [],
      "stateMutability": "nonpayable",
      "type": "function"
    },
    {
      "inputs": [
        {
          "internalType": "address",
          "name": "owner",
          "type": "address"
        }
      ],
      "name": "balanceOf",
      "outputs": [
        {
          "internalType": "uint256",
          "name": "",
          "type": "uint256"
        }
      ],
      "stateMutability": "view",
      "type": "function"
    },
    {
      "inputs": [
        {
          "internalType": "string",
          "name": "tokenURI",
          "type": "string"
        }
      ],
      "name": "createToken",
      "outputs": [
        {
          "internalType": "uint256",
          "name": "",
          "type": "uint256"
        }
      ],
      "stateMutability": "payable",
      "type": "function"
    },
    {
      "inputs": [],
      "name": "fetchItemsListed",
      "outputs": [
        {
          "components": [
            {
              "internalType": "uint256",
              "name": "tokenId",
              "type": "uint256"
            },
            {
              "internalType": "address payable",
              "name": "seller",
              "type": "address"
            },
            {
              "internalType": "address payable",
              "name": "owner",
              "type": "address"
            },
            {
              "internalType": "bool",
              "name": "sold",
              "type": "bool"
            }
          ],
          "internalType": "struct NFTMarketplace.MarketItem[]",
          "name": "",
          "type": "tuple[]"
        }
      ],
      "stateMutability": "view",
      "type": "function"
    },
    {
      "inputs": [],
      "name": "fetchMarketItems",
      "outputs": [
        {
          "components": [
            {
              "internalType": "uint256",
              "name": "tokenId",
              "type": "uint256"
            },
            {
              "internalType": "address payable",
              "name": "seller",
              "type": "address"
            },
            {
              "internalType": "address payable",
              "name": "owner",
              "type": "address"
            },
            {
              "internalType": "bool",
              "name": "sold",
              "type": "bool"
            }
          ],
          "internalType": "struct NFTMarketplace.MarketItem[]",
          "name": "",
          "type": "tuple[]"
        }
      ],
      "stateMutability": "view",
      "type": "function"
    },
    {
      "inputs": [
        {
          "internalType": "uint256",
          "name": "tokenId",
          "type": "uint256"
        }
      ],
      "name": "getApproved",
      "outputs": [
        {
          "internalType": "address",
          "name": "",
          "type": "address"
        }
      ],
      "stateMutability": "view",
      "type": "function"
    },
    {
      "inputs": [
        {
          "internalType": "address",
          "name": "owner",
          "type": "address"
        },
        {
          "internalType": "address",
          "name": "operator",
          "type": "address"
        }
      ],
      "name": "isApprovedForAll",
      "outputs": [
        {
          "internalType": "bool",
          "name": "",
          "type": "bool"
        }
      ],
      "stateMutability": "view",
      "type": "function"
    },
    {
      "inputs": [],
      "name": "name",
      "outputs": [
        {
          "internalType": "string",
          "name": "",
          "type": "string"
        }
      ],
      "stateMutability": "view",
      "type": "function"
    },
    {
      "inputs": [
        {
          "internalType": "uint256",
          "name": "tokenId",
          "type": "uint256"
        }
      ],
      "name": "ownerOf",
      "outputs": [
        {
          "internalType": "address",
          "name": "",
          "type": "address"
        }
      ],
      "stateMutability": "view",
      "type": "function"
    },
    {
      "inputs": [
        {
          "internalType": "address",
          "name": "from",
          "type": "address"
        },
        {
          "internalType": "address",
          "name": "to",
          "type": "address"
        },
        {
          "internalType": "uint256",
          "name": "tokenId",
          "type": "uint256"
        }
      ],
      "name": "safeTransferFrom",
      "outputs": [],
      "stateMutability": "nonpayable",
      "type": "function"
    },
    {
      "inputs": [
        {
          "internalType": "address",
          "name": "from",
          "type": "address"
        },
        {
          "internalType": "address",
          "name": "to",
          "type": "address"
        },
        {
          "internalType": "uint256",
          "name": "tokenId",
          "type": "uint256"
        },
        {
          "internalType": "bytes",
          "name": "_data",
          "type": "bytes"
        }
      ],
      "name": "safeTransferFrom",
      "outputs": [],
      "stateMutability": "nonpayable",
      "type": "function"
    },
    {
      "inputs": [
        {
          "internalType": "address",
          "name": "operator",
          "type": "address"
        },
        {
          "internalType": "bool",
          "name": "approved",
          "type": "bool"
        }
      ],
      "name": "setApprovalForAll",
      "outputs": [],
      "stateMutability": "nonpayable",
      "type": "function"
    },
    {
      "inputs": [
        {
          "internalType": "bytes4",
          "name": "interfaceId",
          "type": "bytes4"
        }
      ],
      "name": "supportsInterface",
      "outputs": [
        {
          "internalType": "bool",
          "name": "",
          "type": "bool"
        }
      ],
      "stateMutability": "view",
      "type": "function"
    },
    {
      "inputs": [],
      "name": "symbol",
      "outputs": [
        {
          "internalType": "string",
          "name": "",
          "type": "string"
        }
      ],
      "stateMutability": "view",
      "type": "function"
    },
    {
      "inputs": [
        {
          "internalType": "uint256",
          "name": "tokenId",
          "type": "uint256"
        }
      ],
      "name": "tokenURI",
      "outputs": [
        {
          "internalType": "string",
          "name": "",
          "type": "string"
        }
      ],
      "stateMutability": "view",
      "type": "function"
    },
    {
      "inputs": [
        {
          "internalType": "address",
          "name": "from",
          "type": "address"
        },
        {
          "internalType": "address",
          "name": "to",
          "type": "address"
        },
        {
          "internalType": "uint256",
          "name": "tokenId",
          "type": "uint256"
        }
      ],
      "name": "transferFrom",
      "outputs": [],
      "stateMutability": "nonpayable",
      "type": "function"
    }
  ],
  "bytecode": "0x60806040523480156200001157600080fd5b506040518060400160405280600981526020016850656e73696f6e466960b81b8152506040518060400160405280600381526020016250464960e81b815250816000908162000061919062000130565b50600162000070828262000130565b5050600880546001600160a01b0319163317905550620001fc565b634e487b7160e01b600052604160045260246000fd5b600181811c90821680620000b657607f821691505b602082108103620000d757634e487b7160e01b600052602260045260246000fd5b50919050565b601f8211156200012b57600081815260208120601f850160051c81016020861015620001065750805b601f850160051c820191505b81811015620001275782815560010162000112565b5050505b505050565b81516001600160401b038111156200014c576200014c6200008b565b62000164816200015d8454620000a1565b84620000dd565b602080601f8311600181146200019c5760008415620001835750858301515b600019600386901b1c1916600185901b17855562000127565b600085815260208120601f198616915b82811015620001cd57888601518255948401946001909101908401620001ac565b5085821015620001ec5787850151600019600388901b60f8161c191681555b5050505050600190811b01905550565b611c40806200020c6000396000f3fe6080604052600436106100f35760003560e01c806345f8fa801161008a578063a22cb46511610059578063a22cb46514610296578063b88d4fde146102b6578063c87b56dd146102d6578063e985e9c5146102f657600080fd5b806345f8fa801461022c5780636352211e1461024157806370a082311461026157806395d89b411461028157600080fd5b80630f08efe0116100c65780630f08efe0146101a957806323b872dd146101cb57806342842e0e146101eb57806345576f941461020b57600080fd5b806301ffc9a7146100f857806306fdde031461012d578063081812fc1461014f578063095ea7b314610187575b600080fd5b34801561010457600080fd5b50610118610113366004611585565b610316565b60405190151581526020015b60405180910390f35b34801561013957600080fd5b50610142610368565b60405161012491906115f2565b34801561015b57600080fd5b5061016f61016a366004611605565b6103fa565b6040516001600160a01b039091168152602001610124565b34801561019357600080fd5b506101a76101a236600461163a565b610487565b005b3480156101b557600080fd5b506101be61059c565b6040516101249190611664565b3480156101d757600080fd5b506101a76101e63660046116d6565b6106d7565b3480156101f757600080fd5b506101a76102063660046116d6565b610708565b61021e61021936600461179e565b610723565b604051908152602001610124565b34801561023857600080fd5b506101be61075d565b34801561024d57600080fd5b5061016f61025c366004611605565b61092b565b34801561026d57600080fd5b5061021e61027c3660046117e7565b6109a2565b34801561028d57600080fd5b50610142610a29565b3480156102a257600080fd5b506101a76102b1366004611802565b610a38565b3480156102c257600080fd5b506101a76102d136600461183e565b610a47565b3480156102e257600080fd5b506101426102f1366004611605565b610a7f565b34801561030257600080fd5b506101186103113660046118ba565b610bf5565b60006001600160e01b031982166380ac58cd60e01b148061034757506001600160e01b03198216635b5e139f60e01b145b8061036257506301ffc9a760e01b6001600160e01b03198316145b92915050565b606060008054610377906118ed565b80601f01602080910402602001604051908101604052809291908181526020018280546103a3906118ed565b80156103f05780601f106103c5576101008083540402835291602001916103f0565b820191906000526020600020905b8154815290600101906020018083116103d357829003601f168201915b5050505050905090565b600061040582610c23565b61046b5760405162461bcd60e51b815260206004820152602c60248201527f4552433732313a20617070726f76656420717565727920666f72206e6f6e657860448201526b34b9ba32b73a103a37b5b2b760a11b60648201526084015b60405180910390fd5b506000908152600460205260409020546001600160a01b031690565b60006104928261092b565b9050806001600160a01b0316836001600160a01b0316036104ff5760405162461bcd60e51b815260206004820152602160248201527f4552433732313a20617070726f76616c20746f2063757272656e74206f776e656044820152603960f91b6064820152608401610462565b336001600160a01b038216148061051b575061051b8133610bf5565b61058d5760405162461bcd60e51b815260206004820152603860248201527f4552433732313a20617070726f76652063616c6c6572206973206e6f74206f7760448201527f6e6572206e6f7220617070726f76656420666f7220616c6c00000000000000006064820152608401610462565b6105978383610c40565b505050565b606060006105a960075490565b90506000808267ffffffffffffffff8111156105c7576105c7611712565b60405190808252806020026020018201604052801561061957816020015b6040805160808101825260008082526020808301829052928201819052606082015282526000199092019101816105e55790505b50905060005b838110156106cf57600061063482600161193d565b60008181526009602090815260409182902082516080810184528154815260018201546001600160a01b0390811693820193909352600282015492831693810193909352600160a01b90910460ff16151560608301528551929350918590879081106106a2576106a2611950565b60209081029190910101526106b860018661193d565b9450505080806106c790611966565b91505061061f565b509392505050565b6106e13382610cae565b6106fd5760405162461bcd60e51b81526004016104629061197f565b610597838383610d77565b61059783838360405180602001604052806000815250610a47565b6000610733600780546001019055565b600061073e60075490565b905061074a3382610f13565b6107548184611046565b610362816110ca565b6060600061076a60075490565b905060008060005b838110156107cc57336009600061078a84600161193d565b81526020810191909152604001600020600101546001600160a01b0316036107ba576107b760018461193d565b92505b806107c481611966565b915050610772565b5060008267ffffffffffffffff8111156107e8576107e8611712565b60405190808252806020026020018201604052801561083a57816020015b6040805160808101825260008082526020808301829052928201819052606082015282526000199092019101816108065790505b50905060005b8481101561092257336009600061085884600161193d565b81526020810191909152604001600020600101546001600160a01b03160361091057600061088782600161193d565b60008181526009602090815260409182902082516080810184528154815260018201546001600160a01b0390811693820193909352600282015492831693810193909352600160a01b90910460ff16151560608301528551929350918590879081106108f5576108f5611950565b602090810291909101015261090b60018661193d565b945050505b8061091a81611966565b915050610840565b50949350505050565b6000818152600260205260408120546001600160a01b0316806103625760405162461bcd60e51b815260206004820152602960248201527f4552433732313a206f776e657220717565727920666f72206e6f6e657869737460448201526832b73a103a37b5b2b760b91b6064820152608401610462565b60006001600160a01b038216610a0d5760405162461bcd60e51b815260206004820152602a60248201527f4552433732313a2062616c616e636520717565727920666f7220746865207a65604482015269726f206164647265737360b01b6064820152608401610462565b506001600160a01b031660009081526003602052604090205490565b606060018054610377906118ed565b610a43338383611191565b5050565b610a513383610cae565b610a6d5760405162461bcd60e51b81526004016104629061197f565b610a798484848461125f565b50505050565b6060610a8a82610c23565b610af05760405162461bcd60e51b815260206004820152603160248201527f45524337323155524953746f726167653a2055524920717565727920666f72206044820152703737b732bc34b9ba32b73a103a37b5b2b760791b6064820152608401610462565b60008281526006602052604081208054610b09906118ed565b80601f0160208091040260200160405190810160405280929190818152602001828054610b35906118ed565b8015610b825780601f10610b5757610100808354040283529160200191610b82565b820191906000526020600020905b815481529060010190602001808311610b6557829003601f168201915b505050505090506000610ba060408051602081019091526000815290565b90508051600003610bb2575092915050565b815115610be4578082604051602001610bcc9291906119d0565b60405160208183030381529060405292505050919050565b610bed84611292565b949350505050565b6001600160a01b03918216600090815260056020908152604080832093909416825291909152205460ff1690565b6000908152600260205260409020546001600160a01b0316151590565b600081815260046020526040902080546001600160a01b0319166001600160a01b0384169081179091558190610c758261092b565b6001600160a01b03167f8c5be1e5ebec7d5bd14f71427d1e84f3dd0314c0f7b2291e5b200ac8c7c3b92560405160405180910390a45050565b6000610cb982610c23565b610d1a5760405162461bcd60e51b815260206004820152602c60248201527f4552433732313a206f70657261746f7220717565727920666f72206e6f6e657860448201526b34b9ba32b73a103a37b5b2b760a11b6064820152608401610462565b6000610d258361092b565b9050806001600160a01b0316846001600160a01b03161480610d4c5750610d4c8185610bf5565b80610bed5750836001600160a01b0316610d65846103fa565b6001600160a01b031614949350505050565b826001600160a01b0316610d8a8261092b565b6001600160a01b031614610dee5760405162461bcd60e51b815260206004820152602560248201527f4552433732313a207472616e736665722066726f6d20696e636f72726563742060448201526437bbb732b960d91b6064820152608401610462565b6001600160a01b038216610e505760405162461bcd60e51b8152602060048201526024808201527f4552433732313a207472616e7366657220746f20746865207a65726f206164646044820152637265737360e01b6064820152608401610462565b610e5b600082610c40565b6001600160a01b0383166000908152600360205260408120805460019290610e849084906119ff565b90915550506001600160a01b0382166000908152600360205260408120805460019290610eb290849061193d565b909155505060008181526002602052604080822080546001600160a01b0319166001600160a01b0386811691821790925591518493918716917fddf252ad1be2c89b69c2b068fc378daa952ba7f163c4a11628f55a4df523b3ef91a4505050565b6001600160a01b038216610f695760405162461bcd60e51b815260206004820181905260248201527f4552433732313a206d696e7420746f20746865207a65726f20616464726573736044820152606401610462565b610f7281610c23565b15610fbf5760405162461bcd60e51b815260206004820152601c60248201527f4552433732313a20746f6b656e20616c7265616479206d696e746564000000006044820152606401610462565b6001600160a01b0382166000908152600360205260408120805460019290610fe890849061193d565b909155505060008181526002602052604080822080546001600160a01b0319166001600160a01b03861690811790915590518392907fddf252ad1be2c89b69c2b068fc378daa952ba7f163c4a11628f55a4df523b3ef908290a45050565b61104f82610c23565b6110b25760405162461bcd60e51b815260206004820152602e60248201527f45524337323155524953746f726167653a2055524920736574206f66206e6f6e60448201526d32bc34b9ba32b73a103a37b5b2b760911b6064820152608401610462565b60008281526006602052604090206105978282611a60565b6040805160808101825282815233602080830182815230848601818152600060608088018281528a8352600987528983209851895594516001890180546001600160a01b039283166001600160a01b031990911617905592516002909801805495511515600160a01b026001600160a81b031990961698909316979097179390931790558551938452918301919091529281019290925282917fac1bd62278cac1e3927d9af6d75c2a00c32db78ed0bb3a721d009050f786b7e8910160405180910390a250565b816001600160a01b0316836001600160a01b0316036111f25760405162461bcd60e51b815260206004820152601960248201527f4552433732313a20617070726f766520746f2063616c6c6572000000000000006044820152606401610462565b6001600160a01b03838116600081815260056020908152604080832094871680845294825291829020805460ff191686151590811790915591519182527f17307eab39ab6107e8899845ad3d59bd9653f200f220920489ca2b5937696c31910160405180910390a3505050565b61126a848484610d77565b6112768484848461136a565b610a795760405162461bcd60e51b815260040161046290611b20565b606061129d82610c23565b6113015760405162461bcd60e51b815260206004820152602f60248201527f4552433732314d657461646174613a2055524920717565727920666f72206e6f60448201526e3732bc34b9ba32b73a103a37b5b2b760891b6064820152608401610462565b600061131860408051602081019091526000815290565b905060008151116113385760405180602001604052806000815250611363565b806113428461146b565b6040516020016113539291906119d0565b6040516020818303038152906040525b9392505050565b60006001600160a01b0384163b1561146057604051630a85bd0160e11b81526001600160a01b0385169063150b7a02906113ae903390899088908890600401611b72565b6020604051808303816000875af19250505080156113e9575060408051601f3d908101601f191682019092526113e691810190611baf565b60015b611446573d808015611417576040519150601f19603f3d011682016040523d82523d6000602084013e61141c565b606091505b50805160000361143e5760405162461bcd60e51b815260040161046290611b20565b805181602001fd5b6001600160e01b031916630a85bd0160e11b149050610bed565b506001949350505050565b6060816000036114925750506040805180820190915260018152600360fc1b602082015290565b8160005b81156114bc57806114a681611966565b91506114b59050600a83611be2565b9150611496565b60008167ffffffffffffffff8111156114d7576114d7611712565b6040519080825280601f01601f191660200182016040528015611501576020820181803683370190505b5090505b8415610bed576115166001836119ff565b9150611523600a86611bf6565b61152e90603061193d565b60f81b81838151811061154357611543611950565b60200101906001600160f81b031916908160001a905350611565600a86611be2565b9450611505565b6001600160e01b03198116811461158257600080fd5b50565b60006020828403121561159757600080fd5b81356113638161156c565b60005b838110156115bd5781810151838201526020016115a5565b50506000910152565b600081518084526115de8160208601602086016115a2565b601f01601f19169290920160200192915050565b60208152600061136360208301846115c6565b60006020828403121561161757600080fd5b5035919050565b80356001600160a01b038116811461163557600080fd5b919050565b6000806040838503121561164d57600080fd5b6116568361161e565b946020939093013593505050565b602080825282518282018190526000919060409081850190868401855b828110156116c957815180518552868101516001600160a01b039081168887015286820151168686015260609081015115159085015260809093019290850190600101611681565b5091979650505050505050565b6000806000606084860312156116eb57600080fd5b6116f48461161e565b92506117026020850161161e565b9150604084013590509250925092565b634e487b7160e01b600052604160045260246000fd5b600067ffffffffffffffff8084111561174357611743611712565b604051601f8501601f19908116603f0116810190828211818310171561176b5761176b611712565b8160405280935085815286868601111561178457600080fd5b858560208301376000602087830101525050509392505050565b6000602082840312156117b057600080fd5b813567ffffffffffffffff8111156117c757600080fd5b8201601f810184136117d857600080fd5b610bed84823560208401611728565b6000602082840312156117f957600080fd5b6113638261161e565b6000806040838503121561181557600080fd5b61181e8361161e565b91506020830135801515811461183357600080fd5b809150509250929050565b6000806000806080858703121561185457600080fd5b61185d8561161e565b935061186b6020860161161e565b925060408501359150606085013567ffffffffffffffff81111561188e57600080fd5b8501601f8101871361189f57600080fd5b6118ae87823560208401611728565b91505092959194509250565b600080604083850312156118cd57600080fd5b6118d68361161e565b91506118e46020840161161e565b90509250929050565b600181811c9082168061190157607f821691505b60208210810361192157634e487b7160e01b600052602260045260246000fd5b50919050565b634e487b7160e01b600052601160045260246000fd5b8082018082111561036257610362611927565b634e487b7160e01b600052603260045260246000fd5b60006001820161197857611978611927565b5060010190565b60208082526031908201527f4552433732313a207472616e736665722063616c6c6572206973206e6f74206f6040820152701ddb995c881b9bdc88185c1c1c9bdd9959607a1b606082015260800190565b600083516119e28184602088016115a2565b8351908301906119f68183602088016115a2565b01949350505050565b8181038181111561036257610362611927565b601f82111561059757600081815260208120601f850160051c81016020861015611a395750805b601f850160051c820191505b81811015611a5857828155600101611a45565b505050505050565b815167ffffffffffffffff811115611a7a57611a7a611712565b611a8e81611a8884546118ed565b84611a12565b602080601f831160018114611ac35760008415611aab5750858301515b600019600386901b1c1916600185901b178555611a58565b600085815260208120601f198616915b82811015611af257888601518255948401946001909101908401611ad3565b5085821015611b105787850151600019600388901b60f8161c191681555b5050505050600190811b01905550565b60208082526032908201527f4552433732313a207472616e7366657220746f206e6f6e20455243373231526560408201527131b2b4bb32b91034b6b83632b6b2b73a32b960711b606082015260800190565b6001600160a01b0385811682528416602082015260408101839052608060608201819052600090611ba5908301846115c6565b9695505050505050565b600060208284031215611bc157600080fd5b81516113638161156c565b634e487b7160e01b600052601260045260246000fd5b600082611bf157611bf1611bcc565b500490565b600082611c0557611c05611bcc565b50069056fea26469706673582212208a3b769aa529bb338998def1f1b0a90cb8fb8100b82c6cafcd01c9a4b30a10f564736f6c63430008110033",
  "linkReferences": {},
  "deployedLinkReferences": {}
}