{
  "_format": "hh-sol-artifact-1",
  "contractName": "NFTMarketplace",
  "sourceName": "contracts/NFTMarketplace.sol",
  "abi": [
    {
      "inputs": [],
      "stateMutability": "nonpayable",
      "type": "constructor"
    },
    {
      "anonymous": false,
      "inputs": [
        {
          "indexed": true,
          "internalType": "address",
          "name": "owner",
          "type": "address"
        },
        {
          "indexed": true,
          "internalType": "address",
          "name": "approved",
          "type": "address"
        },
        {
          "indexed": true,
          "internalType": "uint256",
          "name": "tokenId",
          "type": "uint256"
        }
      ],
      "name": "Approval",
      "type": "event"
    },
    {
      "anonymous": false,
      "inputs": [
        {
          "indexed": true,
          "internalType": "address",
          "name": "owner",
          "type": "address"
        },
        {
          "indexed": true,
          "internalType": "address",
          "name": "operator",
          "type": "address"
        },
        {
          "indexed": false,
          "internalType": "bool",
          "name": "approved",
          "type": "bool"
        }
      ],
      "name": "ApprovalForAll",
      "type": "event"
    },
    {
      "anonymous": false,
      "inputs": [
        {
          "indexed": true,
          "internalType": "uint256",
          "name": "tokenId",
          "type": "uint256"
        },
        {
          "indexed": false,
          "internalType": "address",
          "name": "seller",
          "type": "address"
        },
        {
          "indexed": false,
          "internalType": "address",
          "name": "owner",
          "type": "address"
        },
        {
          "indexed": false,
          "internalType": "bool",
          "name": "sold",
          "type": "bool"
        }
      ],
      "name": "MarketItemCreated",
      "type": "event"
    },
    {
      "anonymous": false,
      "inputs": [
        {
          "indexed": true,
          "internalType": "address",
          "name": "from",
          "type": "address"
        },
        {
          "indexed": true,
          "internalType": "address",
          "name": "to",
          "type": "address"
        },
        {
          "indexed": true,
          "internalType": "uint256",
          "name": "tokenId",
          "type": "uint256"
        }
      ],
      "name": "Transfer",
      "type": "event"
    },
    {
      "inputs": [
        {
          "internalType": "address",
          "name": "to",
          "type": "address"
        },
        {
          "internalType": "uint256",
          "name": "tokenId",
          "type": "uint256"
        }
      ],
      "name": "approve",
      "outputs": [],
      "stateMutability": "nonpayable",
      "type": "function"
    },
    {
      "inputs": [
        {
          "internalType": "address",
          "name": "owner",
          "type": "address"
        }
      ],
      "name": "balanceOf",
      "outputs": [
        {
          "internalType": "uint256",
          "name": "",
          "type": "uint256"
        }
      ],
      "stateMutability": "view",
      "type": "function"
    },
    {
      "inputs": [
        {
          "internalType": "string",
          "name": "tokenURI",
          "type": "string"
        }
      ],
      "name": "createToken",
      "outputs": [
        {
          "internalType": "uint256",
          "name": "",
          "type": "uint256"
        }
      ],
      "stateMutability": "payable",
      "type": "function"
    },
    {
      "inputs": [],
      "name": "fetchItemsListed",
      "outputs": [
        {
          "components": [
            {
              "internalType": "uint256",
              "name": "tokenId",
              "type": "uint256"
            },
            {
              "internalType": "address payable",
              "name": "seller",
              "type": "address"
            },
            {
              "internalType": "address payable",
              "name": "owner",
              "type": "address"
            },
            {
              "internalType": "bool",
              "name": "sold",
              "type": "bool"
            }
          ],
          "internalType": "struct NFTMarketplace.MarketItem[]",
          "name": "",
          "type": "tuple[]"
        }
      ],
      "stateMutability": "view",
      "type": "function"
    },
    {
      "inputs": [],
      "name": "fetchMarketItems",
      "outputs": [
        {
          "components": [
            {
              "internalType": "uint256",
              "name": "tokenId",
              "type": "uint256"
            },
            {
              "internalType": "address payable",
              "name": "seller",
              "type": "address"
            },
            {
              "internalType": "address payable",
              "name": "owner",
              "type": "address"
            },
            {
              "internalType": "bool",
              "name": "sold",
              "type": "bool"
            }
          ],
          "internalType": "struct NFTMarketplace.MarketItem[]",
          "name": "",
          "type": "tuple[]"
        }
      ],
      "stateMutability": "view",
      "type": "function"
    },
    {
      "inputs": [
        {
          "internalType": "uint256",
          "name": "tokenId",
          "type": "uint256"
        }
      ],
      "name": "getApproved",
      "outputs": [
        {
          "internalType": "address",
          "name": "",
          "type": "address"
        }
      ],
      "stateMutability": "view",
      "type": "function"
    },
    {
      "inputs": [
        {
          "internalType": "address",
          "name": "owner",
          "type": "address"
        },
        {
          "internalType": "address",
          "name": "operator",
          "type": "address"
        }
      ],
      "name": "isApprovedForAll",
      "outputs": [
        {
          "internalType": "bool",
          "name": "",
          "type": "bool"
        }
      ],
      "stateMutability": "view",
      "type": "function"
    },
    {
      "inputs": [],
      "name": "name",
      "outputs": [
        {
          "internalType": "string",
          "name": "",
          "type": "string"
        }
      ],
      "stateMutability": "view",
      "type": "function"
    },
    {
      "inputs": [
        {
          "internalType": "uint256",
          "name": "tokenId",
          "type": "uint256"
        }
      ],
      "name": "ownerOf",
      "outputs": [
        {
          "internalType": "address",
          "name": "",
          "type": "address"
        }
      ],
      "stateMutability": "view",
      "type": "function"
    },
    {
      "inputs": [
        {
          "internalType": "address",
          "name": "from",
          "type": "address"
        },
        {
          "internalType": "address",
          "name": "to",
          "type": "address"
        },
        {
          "internalType": "uint256",
          "name": "tokenId",
          "type": "uint256"
        }
      ],
      "name": "safeTransferFrom",
      "outputs": [],
      "stateMutability": "nonpayable",
      "type": "function"
    },
    {
      "inputs": [
        {
          "internalType": "address",
          "name": "from",
          "type": "address"
        },
        {
          "internalType": "address",
          "name": "to",
          "type": "address"
        },
        {
          "internalType": "uint256",
          "name": "tokenId",
          "type": "uint256"
        },
        {
          "internalType": "bytes",
          "name": "_data",
          "type": "bytes"
        }
      ],
      "name": "safeTransferFrom",
      "outputs": [],
      "stateMutability": "nonpayable",
      "type": "function"
    },
    {
      "inputs": [
        {
          "internalType": "address",
          "name": "operator",
          "type": "address"
        },
        {
          "internalType": "bool",
          "name": "approved",
          "type": "bool"
        }
      ],
      "name": "setApprovalForAll",
      "outputs": [],
      "stateMutability": "nonpayable",
      "type": "function"
    },
    {
      "inputs": [
        {
          "internalType": "bytes4",
          "name": "interfaceId",
          "type": "bytes4"
        }
      ],
      "name": "supportsInterface",
      "outputs": [
        {
          "internalType": "bool",
          "name": "",
          "type": "bool"
        }
      ],
      "stateMutability": "view",
      "type": "function"
    },
    {
      "inputs": [],
      "name": "symbol",
      "outputs": [
        {
          "internalType": "string",
          "name": "",
          "type": "string"
        }
      ],
      "stateMutability": "view",
      "type": "function"
    },
    {
      "inputs": [
        {
          "internalType": "uint256",
          "name": "tokenId",
          "type": "uint256"
        }
      ],
      "name": "tokenURI",
      "outputs": [
        {
          "internalType": "string",
          "name": "",
          "type": "string"
        }
      ],
      "stateMutability": "view",
      "type": "function"
    },
    {
      "inputs": [
        {
          "internalType": "address",
          "name": "from",
          "type": "address"
        },
        {
          "internalType": "address",
          "name": "to",
          "type": "address"
        },
        {
          "internalType": "uint256",
          "name": "tokenId",
          "type": "uint256"
        }
      ],
      "name": "transferFrom",
      "outputs": [],
      "stateMutability": "nonpayable",
      "type": "function"
    }
  ],
  "bytecode": "0x60806040523480156200001157600080fd5b50604080518082018252600981526850656e73696f6e466960b81b60208083019182528351808501909452600384526250464960e81b9084015281519192916200005e916000916200008f565b508051620000749060019060208401906200008f565b5050600880546001600160a01b031916331790555062000172565b8280546200009d9062000135565b90600052602060002090601f016020900481019282620000c157600085556200010c565b82601f10620000dc57805160ff19168380011785556200010c565b828001600101855582156200010c579182015b828111156200010c578251825591602001919060010190620000ef565b506200011a9291506200011e565b5090565b5b808211156200011a57600081556001016200011f565b600181811c908216806200014a57607f821691505b602082108114156200016c57634e487b7160e01b600052602260045260246000fd5b50919050565b611c0f80620001826000396000f3fe6080604052600436106100f35760003560e01c806345f8fa801161008a578063a22cb46511610059578063a22cb46514610296578063b88d4fde146102b6578063c87b56dd146102d6578063e985e9c5146102f657600080fd5b806345f8fa801461022c5780636352211e1461024157806370a082311461026157806395d89b411461028157600080fd5b80630f08efe0116100c65780630f08efe0146101a957806323b872dd146101cb57806342842e0e146101eb57806345576f941461020b57600080fd5b806301ffc9a7146100f857806306fdde031461012d578063081812fc1461014f578063095ea7b314610187575b600080fd5b34801561010457600080fd5b5061011861011336600461164e565b61033f565b60405190151581526020015b60405180910390f35b34801561013957600080fd5b50610142610391565b60405161012491906116c3565b34801561015b57600080fd5b5061016f61016a3660046116d6565b610423565b6040516001600160a01b039091168152602001610124565b34801561019357600080fd5b506101a76101a236600461170b565b6104b0565b005b3480156101b557600080fd5b506101be6105c6565b6040516101249190611735565b3480156101d757600080fd5b506101a76101e63660046117a7565b610701565b3480156101f757600080fd5b506101a76102063660046117a7565b610732565b61021e61021936600461186f565b61074d565b604051908152602001610124565b34801561023857600080fd5b506101be610787565b34801561024d57600080fd5b5061016f61025c3660046116d6565b610957565b34801561026d57600080fd5b5061021e61027c3660046118b8565b6109ce565b34801561028d57600080fd5b50610142610a55565b3480156102a257600080fd5b506101a76102b13660046118d3565b610a64565b3480156102c257600080fd5b506101a76102d136600461190f565b610a73565b3480156102e257600080fd5b506101426102f13660046116d6565b610aab565b34801561030257600080fd5b5061011861031136600461198b565b6001600160a01b03918216600090815260056020908152604080832093909416825291909152205460ff1690565b60006001600160e01b031982166380ac58cd60e01b148061037057506001600160e01b03198216635b5e139f60e01b145b8061038b57506301ffc9a760e01b6001600160e01b03198316145b92915050565b6060600080546103a0906119be565b80601f01602080910402602001604051908101604052809291908181526020018280546103cc906119be565b80156104195780601f106103ee57610100808354040283529160200191610419565b820191906000526020600020905b8154815290600101906020018083116103fc57829003601f168201915b5050505050905090565b600061042e82610c22565b6104945760405162461bcd60e51b815260206004820152602c60248201527f4552433732313a20617070726f76656420717565727920666f72206e6f6e657860448201526b34b9ba32b73a103a37b5b2b760a11b60648201526084015b60405180910390fd5b506000908152600460205260409020546001600160a01b031690565b60006104bb82610957565b9050806001600160a01b0316836001600160a01b031614156105295760405162461bcd60e51b815260206004820152602160248201527f4552433732313a20617070726f76616c20746f2063757272656e74206f776e656044820152603960f91b606482015260840161048b565b336001600160a01b038216148061054557506105458133610311565b6105b75760405162461bcd60e51b815260206004820152603860248201527f4552433732313a20617070726f76652063616c6c6572206973206e6f74206f7760448201527f6e6572206e6f7220617070726f76656420666f7220616c6c0000000000000000606482015260840161048b565b6105c18383610c3f565b505050565b606060006105d360075490565b90506000808267ffffffffffffffff8111156105f1576105f16117e3565b60405190808252806020026020018201604052801561064357816020015b60408051608081018252600080825260208083018290529282018190526060820152825260001990920191018161060f5790505b50905060005b838110156106f957600061065e826001611a0f565b60008181526009602090815260409182902082516080810184528154815260018201546001600160a01b0390811693820193909352600282015492831693810193909352600160a01b90910460ff16151560608301528551929350918590879081106106cc576106cc611a27565b60209081029190910101526106e2600186611a0f565b9450505080806106f190611a3d565b915050610649565b509392505050565b61070b3382610cad565b6107275760405162461bcd60e51b815260040161048b90611a58565b6105c1838383610d96565b6105c183838360405180602001604052806000815250610a73565b600061075d600780546001019055565b600061076860075490565b90506107743382610f32565b61077e8184611065565b61038b816110f0565b6060600061079460075490565b905060008060005b838110156107f75733600960006107b4846001611a0f565b81526020810191909152604001600020600101546001600160a01b031614156107e5576107e2600184611a0f565b92505b806107ef81611a3d565b91505061079c565b5060008267ffffffffffffffff811115610813576108136117e3565b60405190808252806020026020018201604052801561086557816020015b6040805160808101825260008082526020808301829052928201819052606082015282526000199092019101816108315790505b50905060005b8481101561094e573360096000610883846001611a0f565b81526020810191909152604001600020600101546001600160a01b0316141561093c5760006108b3826001611a0f565b60008181526009602090815260409182902082516080810184528154815260018201546001600160a01b0390811693820193909352600282015492831693810193909352600160a01b90910460ff161515606083015285519293509185908790811061092157610921611a27565b6020908102919091010152610937600186611a0f565b945050505b8061094681611a3d565b91505061086b565b50949350505050565b6000818152600260205260408120546001600160a01b03168061038b5760405162461bcd60e51b815260206004820152602960248201527f4552433732313a206f776e657220717565727920666f72206e6f6e657869737460448201526832b73a103a37b5b2b760b91b606482015260840161048b565b60006001600160a01b038216610a395760405162461bcd60e51b815260206004820152602a60248201527f4552433732313a2062616c616e636520717565727920666f7220746865207a65604482015269726f206164647265737360b01b606482015260840161048b565b506001600160a01b031660009081526003602052604090205490565b6060600180546103a0906119be565b610a6f3383836111b7565b5050565b610a7d3383610cad565b610a995760405162461bcd60e51b815260040161048b90611a58565b610aa584848484611286565b50505050565b6060610ab682610c22565b610b1c5760405162461bcd60e51b815260206004820152603160248201527f45524337323155524953746f726167653a2055524920717565727920666f72206044820152703737b732bc34b9ba32b73a103a37b5b2b760791b606482015260840161048b565b60008281526006602052604081208054610b35906119be565b80601f0160208091040260200160405190810160405280929190818152602001828054610b61906119be565b8015610bae5780601f10610b8357610100808354040283529160200191610bae565b820191906000526020600020905b815481529060010190602001808311610b9157829003601f168201915b505050505090506000610bcc60408051602081019091526000815290565b9050805160001415610bdf575092915050565b815115610c11578082604051602001610bf9929190611aa9565b60405160208183030381529060405292505050919050565b610c1a846112b9565b949350505050565b6000908152600260205260409020546001600160a01b0316151590565b600081815260046020526040902080546001600160a01b0319166001600160a01b0384169081179091558190610c7482610957565b6001600160a01b03167f8c5be1e5ebec7d5bd14f71427d1e84f3dd0314c0f7b2291e5b200ac8c7c3b92560405160405180910390a45050565b6000610cb882610c22565b610d195760405162461bcd60e51b815260206004820152602c60248201527f4552433732313a206f70657261746f7220717565727920666f72206e6f6e657860448201526b34b9ba32b73a103a37b5b2b760a11b606482015260840161048b565b6000610d2483610957565b9050806001600160a01b0316846001600160a01b03161480610d6b57506001600160a01b0380821660009081526005602090815260408083209388168352929052205460ff165b80610c1a5750836001600160a01b0316610d8484610423565b6001600160a01b031614949350505050565b826001600160a01b0316610da982610957565b6001600160a01b031614610e0d5760405162461bcd60e51b815260206004820152602560248201527f4552433732313a207472616e736665722066726f6d20696e636f72726563742060448201526437bbb732b960d91b606482015260840161048b565b6001600160a01b038216610e6f5760405162461bcd60e51b8152602060048201526024808201527f4552433732313a207472616e7366657220746f20746865207a65726f206164646044820152637265737360e01b606482015260840161048b565b610e7a600082610c3f565b6001600160a01b0383166000908152600360205260408120805460019290610ea3908490611ad8565b90915550506001600160a01b0382166000908152600360205260408120805460019290610ed1908490611a0f565b909155505060008181526002602052604080822080546001600160a01b0319166001600160a01b0386811691821790925591518493918716917fddf252ad1be2c89b69c2b068fc378daa952ba7f163c4a11628f55a4df523b3ef91a4505050565b6001600160a01b038216610f885760405162461bcd60e51b815260206004820181905260248201527f4552433732313a206d696e7420746f20746865207a65726f2061646472657373604482015260640161048b565b610f9181610c22565b15610fde5760405162461bcd60e51b815260206004820152601c60248201527f4552433732313a20746f6b656e20616c7265616479206d696e74656400000000604482015260640161048b565b6001600160a01b0382166000908152600360205260408120805460019290611007908490611a0f565b909155505060008181526002602052604080822080546001600160a01b0319166001600160a01b03861690811790915590518392907fddf252ad1be2c89b69c2b068fc378daa952ba7f163c4a11628f55a4df523b3ef908290a45050565b61106e82610c22565b6110d15760405162461bcd60e51b815260206004820152602e60248201527f45524337323155524953746f726167653a2055524920736574206f66206e6f6e60448201526d32bc34b9ba32b73a103a37b5b2b760911b606482015260840161048b565b600082815260066020908152604090912082516105c19284019061159c565b6040805160808101825282815233602080830182815230848601818152600060608088018281528a8352600987528983209851895594516001890180546001600160a01b039283166001600160a01b031990911617905592516002909801805495511515600160a01b026001600160a81b031990961698909316979097179390931790558551938452918301919091529281019290925282917fac1bd62278cac1e3927d9af6d75c2a00c32db78ed0bb3a721d009050f786b7e8910160405180910390a250565b816001600160a01b0316836001600160a01b031614156112195760405162461bcd60e51b815260206004820152601960248201527f4552433732313a20617070726f766520746f2063616c6c657200000000000000604482015260640161048b565b6001600160a01b03838116600081815260056020908152604080832094871680845294825291829020805460ff191686151590811790915591519182527f17307eab39ab6107e8899845ad3d59bd9653f200f220920489ca2b5937696c31910160405180910390a3505050565b611291848484610d96565b61129d84848484611391565b610aa55760405162461bcd60e51b815260040161048b90611aef565b60606112c482610c22565b6113285760405162461bcd60e51b815260206004820152602f60248201527f4552433732314d657461646174613a2055524920717565727920666f72206e6f60448201526e3732bc34b9ba32b73a103a37b5b2b760891b606482015260840161048b565b600061133f60408051602081019091526000815290565b9050600081511161135f576040518060200160405280600081525061138a565b806113698461149e565b60405160200161137a929190611aa9565b6040516020818303038152906040525b9392505050565b60006001600160a01b0384163b1561149357604051630a85bd0160e11b81526001600160a01b0385169063150b7a02906113d5903390899088908890600401611b41565b602060405180830381600087803b1580156113ef57600080fd5b505af192505050801561141f575060408051601f3d908101601f1916820190925261141c91810190611b7e565b60015b611479573d80801561144d576040519150601f19603f3d011682016040523d82523d6000602084013e611452565b606091505b5080516114715760405162461bcd60e51b815260040161048b90611aef565b805181602001fd5b6001600160e01b031916630a85bd0160e11b149050610c1a565b506001949350505050565b6060816114c25750506040805180820190915260018152600360fc1b602082015290565b8160005b81156114ec57806114d681611a3d565b91506114e59050600a83611bb1565b91506114c6565b60008167ffffffffffffffff811115611507576115076117e3565b6040519080825280601f01601f191660200182016040528015611531576020820181803683370190505b5090505b8415610c1a57611546600183611ad8565b9150611553600a86611bc5565b61155e906030611a0f565b60f81b81838151811061157357611573611a27565b60200101906001600160f81b031916908160001a905350611595600a86611bb1565b9450611535565b8280546115a8906119be565b90600052602060002090601f0160209004810192826115ca5760008555611610565b82601f106115e357805160ff1916838001178555611610565b82800160010185558215611610579182015b828111156116105782518255916020019190600101906115f5565b5061161c929150611620565b5090565b5b8082111561161c5760008155600101611621565b6001600160e01b03198116811461164b57600080fd5b50565b60006020828403121561166057600080fd5b813561138a81611635565b60005b8381101561168657818101518382015260200161166e565b83811115610aa55750506000910152565b600081518084526116af81602086016020860161166b565b601f01601f19169290920160200192915050565b60208152600061138a6020830184611697565b6000602082840312156116e857600080fd5b5035919050565b80356001600160a01b038116811461170657600080fd5b919050565b6000806040838503121561171e57600080fd5b611727836116ef565b946020939093013593505050565b602080825282518282018190526000919060409081850190868401855b8281101561179a57815180518552868101516001600160a01b039081168887015286820151168686015260609081015115159085015260809093019290850190600101611752565b5091979650505050505050565b6000806000606084860312156117bc57600080fd5b6117c5846116ef565b92506117d3602085016116ef565b9150604084013590509250925092565b634e487b7160e01b600052604160045260246000fd5b600067ffffffffffffffff80841115611814576118146117e3565b604051601f8501601f19908116603f0116810190828211818310171561183c5761183c6117e3565b8160405280935085815286868601111561185557600080fd5b858560208301376000602087830101525050509392505050565b60006020828403121561188157600080fd5b813567ffffffffffffffff81111561189857600080fd5b8201601f810184136118a957600080fd5b610c1a848235602084016117f9565b6000602082840312156118ca57600080fd5b61138a826116ef565b600080604083850312156118e657600080fd5b6118ef836116ef565b91506020830135801515811461190457600080fd5b809150509250929050565b6000806000806080858703121561192557600080fd5b61192e856116ef565b935061193c602086016116ef565b925060408501359150606085013567ffffffffffffffff81111561195f57600080fd5b8501601f8101871361197057600080fd5b61197f878235602084016117f9565b91505092959194509250565b6000806040838503121561199e57600080fd5b6119a7836116ef565b91506119b5602084016116ef565b90509250929050565b600181811c908216806119d257607f821691505b602082108114156119f357634e487b7160e01b600052602260045260246000fd5b50919050565b634e487b7160e01b600052601160045260246000fd5b60008219821115611a2257611a226119f9565b500190565b634e487b7160e01b600052603260045260246000fd5b6000600019821415611a5157611a516119f9565b5060010190565b60208082526031908201527f4552433732313a207472616e736665722063616c6c6572206973206e6f74206f6040820152701ddb995c881b9bdc88185c1c1c9bdd9959607a1b606082015260800190565b60008351611abb81846020880161166b565b835190830190611acf81836020880161166b565b01949350505050565b600082821015611aea57611aea6119f9565b500390565b60208082526032908201527f4552433732313a207472616e7366657220746f206e6f6e20455243373231526560408201527131b2b4bb32b91034b6b83632b6b2b73a32b960711b606082015260800190565b6001600160a01b0385811682528416602082015260408101839052608060608201819052600090611b7490830184611697565b9695505050505050565b600060208284031215611b9057600080fd5b815161138a81611635565b634e487b7160e01b600052601260045260246000fd5b600082611bc057611bc0611b9b565b500490565b600082611bd457611bd4611b9b565b50069056fea2646970667358221220d9205014512715b03cce3cfd784ba022eff529d444f97601b72857b4f6644eff64736f6c63430008090033",
  "linkReferences": {},
  "deployedLinkReferences": {}
}