{
  "_format": "hh-sol-artifact-1",
  "contractName": "PensionFi",
  "sourceName": "contracts/PensionFi.sol",
  "abi": [
    {
      "inputs": [],
      "stateMutability": "payable",
      "type": "constructor"
    },
    {
      "inputs": [],
      "name": "aWethAddress",
      "outputs": [
        {
          "internalType": "address",
          "name": "",
          "type": "address"
        }
      ],
      "stateMutability": "view",
      "type": "function"
    },
    {
      "inputs": [
        {
          "internalType": "uint256",
          "name": "basisPoints",
          "type": "uint256"
        },
        {
          "internalType": "uint256",
          "name": "numDays",
          "type": "uint256"
        },
        {
          "internalType": "uint256",
          "name": "weiAmount",
          "type": "uint256"
        }
      ],
      "name": "calculateInterest",
      "outputs": [
        {
          "internalType": "uint256",
          "name": "",
          "type": "uint256"
        }
      ],
      "stateMutability": "pure",
      "type": "function"
    },
    {
      "inputs": [
        {
          "internalType": "uint256",
          "name": "numDays",
          "type": "uint256"
        },
        {
          "internalType": "uint256",
          "name": "basisPoints",
          "type": "uint256"
        }
      ],
      "name": "changeLockPeriods",
      "outputs": [],
      "stateMutability": "nonpayable",
      "type": "function"
    },
    {
      "inputs": [
        {
          "internalType": "uint256",
          "name": "positionId",
          "type": "uint256"
        },
        {
          "internalType": "uint256",
          "name": "newUnlockDate",
          "type": "uint256"
        }
      ],
      "name": "changeUnlockDate",
      "outputs": [],
      "stateMutability": "nonpayable",
      "type": "function"
    },
    {
      "inputs": [
        {
          "internalType": "uint256",
          "name": "positionId",
          "type": "uint256"
        }
      ],
      "name": "closePosition",
      "outputs": [],
      "stateMutability": "nonpayable",
      "type": "function"
    },
    {
      "inputs": [],
      "name": "currentPositionId",
      "outputs": [
        {
          "internalType": "uint256",
          "name": "",
          "type": "uint256"
        }
      ],
      "stateMutability": "view",
      "type": "function"
    },
    {
      "inputs": [
        {
          "internalType": "address",
          "name": "walletAddress",
          "type": "address"
        }
      ],
      "name": "getAllPositionIdsByAddress",
      "outputs": [
        {
          "internalType": "uint256[]",
          "name": "",
          "type": "uint256[]"
        }
      ],
      "stateMutability": "view",
      "type": "function"
    },
    {
      "inputs": [],
      "name": "getContractAWETHBalance",
      "outputs": [
        {
          "internalType": "uint256",
          "name": "",
          "type": "uint256"
        }
      ],
      "stateMutability": "view",
      "type": "function"
    },
    {
      "inputs": [
        {
          "internalType": "uint256",
          "name": "numDays",
          "type": "uint256"
        }
      ],
      "name": "getInterestRates",
      "outputs": [
        {
          "internalType": "uint256",
          "name": "",
          "type": "uint256"
        }
      ],
      "stateMutability": "view",
      "type": "function"
    },
    {
      "inputs": [],
      "name": "getLockPeriods",
      "outputs": [
        {
          "internalType": "uint256[]",
          "name": "",
          "type": "uint256[]"
        }
      ],
      "stateMutability": "view",
      "type": "function"
    },
    {
      "inputs": [
        {
          "internalType": "uint256",
          "name": "positionId",
          "type": "uint256"
        }
      ],
      "name": "getPositionById",
      "outputs": [
        {
          "components": [
            {
              "internalType": "uint256",
              "name": "positionId",
              "type": "uint256"
            },
            {
              "internalType": "address",
              "name": "walletAddress",
              "type": "address"
            },
            {
              "internalType": "uint256",
              "name": "createdDate",
              "type": "uint256"
            },
            {
              "internalType": "uint256",
              "name": "unlockDate",
              "type": "uint256"
            },
            {
              "internalType": "uint256",
              "name": "percentInterest",
              "type": "uint256"
            },
            {
              "internalType": "uint256",
              "name": "weiStaked",
              "type": "uint256"
            },
            {
              "internalType": "uint256",
              "name": "weiInterest",
              "type": "uint256"
            },
            {
              "internalType": "bool",
              "name": "open",
              "type": "bool"
            }
          ],
          "internalType": "struct PensionFi.Position",
          "name": "",
          "type": "tuple"
        }
      ],
      "stateMutability": "view",
      "type": "function"
    },
    {
      "inputs": [
        {
          "internalType": "uint256",
          "name": "positionId",
          "type": "uint256"
        }
      ],
      "name": "getWeiFromPosition",
      "outputs": [
        {
          "internalType": "uint256",
          "name": "",
          "type": "uint256"
        }
      ],
      "stateMutability": "view",
      "type": "function"
    },
    {
      "inputs": [],
      "name": "iLendingPool",
      "outputs": [
        {
          "internalType": "contract ILendingPool",
          "name": "",
          "type": "address"
        }
      ],
      "stateMutability": "view",
      "type": "function"
    },
    {
      "inputs": [],
      "name": "iWethGateway",
      "outputs": [
        {
          "internalType": "contract IWETHGateway",
          "name": "",
          "type": "address"
        }
      ],
      "stateMutability": "view",
      "type": "function"
    },
    {
      "inputs": [],
      "name": "lendingPoolAddress",
      "outputs": [
        {
          "internalType": "address",
          "name": "",
          "type": "address"
        }
      ],
      "stateMutability": "view",
      "type": "function"
    },
    {
      "inputs": [
        {
          "internalType": "uint256",
          "name": "",
          "type": "uint256"
        }
      ],
      "name": "lockPeriods",
      "outputs": [
        {
          "internalType": "uint256",
          "name": "",
          "type": "uint256"
        }
      ],
      "stateMutability": "view",
      "type": "function"
    },
    {
      "inputs": [],
      "name": "owner",
      "outputs": [
        {
          "internalType": "address",
          "name": "",
          "type": "address"
        }
      ],
      "stateMutability": "view",
      "type": "function"
    },
    {
      "inputs": [
        {
          "internalType": "address",
          "name": "",
          "type": "address"
        },
        {
          "internalType": "uint256",
          "name": "",
          "type": "uint256"
        }
      ],
      "name": "positionIdsByAddress",
      "outputs": [
        {
          "internalType": "uint256",
          "name": "",
          "type": "uint256"
        }
      ],
      "stateMutability": "view",
      "type": "function"
    },
    {
      "inputs": [
        {
          "internalType": "uint256",
          "name": "",
          "type": "uint256"
        }
      ],
      "name": "positions",
      "outputs": [
        {
          "internalType": "uint256",
          "name": "positionId",
          "type": "uint256"
        },
        {
          "internalType": "address",
          "name": "walletAddress",
          "type": "address"
        },
        {
          "internalType": "uint256",
          "name": "createdDate",
          "type": "uint256"
        },
        {
          "internalType": "uint256",
          "name": "unlockDate",
          "type": "uint256"
        },
        {
          "internalType": "uint256",
          "name": "percentInterest",
          "type": "uint256"
        },
        {
          "internalType": "uint256",
          "name": "weiStaked",
          "type": "uint256"
        },
        {
          "internalType": "uint256",
          "name": "weiInterest",
          "type": "uint256"
        },
        {
          "internalType": "bool",
          "name": "open",
          "type": "bool"
        }
      ],
      "stateMutability": "view",
      "type": "function"
    },
    {
      "inputs": [
        {
          "internalType": "uint256",
          "name": "numDays",
          "type": "uint256"
        }
      ],
      "name": "stakeEther",
      "outputs": [],
      "stateMutability": "payable",
      "type": "function"
    },
    {
      "inputs": [
        {
          "internalType": "uint256",
          "name": "",
          "type": "uint256"
        }
      ],
      "name": "tiers",
      "outputs": [
        {
          "internalType": "uint256",
          "name": "",
          "type": "uint256"
        }
      ],
      "stateMutability": "view",
      "type": "function"
    },
    {
      "stateMutability": "payable",
      "type": "receive"
    }
  ],
  "bytecode": "0x6080604052600080546001600160a01b03199081167387770f04bbece8092d777860907798138825f30317825560018054821673e339d30cba24c70dccb82b234589e3c83249e658178155600280549092163317909155600b829055600e6020526104b07f7afcd716927320f51f051185bcedf0c27c168e988bc8f8fb96596727a2111f6e556109c47fb090c141ff576773ef66615158e5341b74c17f5cbbe5c85f9a31ca15ddb2e3e955611d4c7f8b14a3b5f804fe3468476a0ba93d0c986d5b52d4365f1c1ad672993433f1105c55600f805480830182559281905261016d7f8d1108e10bcb7c27dddfc02ed9d693a074039d026cf4ea4240b40f7d581ac80293840155805480830182556102da90840155805491820190556107219101556110458061012e6000396000f3fe60806040526004361061012e5760003560e01c80638da5cb5b116100ab578063ab4185df1161006f578063ab4185df146103e6578063b5574b3814610416578063b838ec8614610436578063c7c9d055146104bd578063d3ae26b3146104dd578063e4f908411461050557600080fd5b80638da5cb5b146102b457806395ad86e0146102d45780639778c97c1461030157806399fbab8814610316578063a126d601146103c657600080fd5b806341ee13be116100f257806341ee13be1461021557806345eae3731461022a5780634c8f2a781461024a57806357c45b4b1461026a57806364db2c5b1461029257600080fd5b8063039af9eb1461013a57806305e1bd8c1461017a5780631131c8cd1461019a578063156a75d3146101b057806320f9f894146101e857600080fd5b3661013557005b600080fd5b34801561014657600080fd5b50610167610155366004610e59565b600e6020526000908152604090205481565b6040519081526020015b60405180910390f35b34801561018657600080fd5b50610167610195366004610e72565b610518565b3480156101a657600080fd5b50610167600b5481565b3480156101bc57600080fd5b506001546101d0906001600160a01b031681565b6040516001600160a01b039091168152602001610171565b3480156101f457600080fd5b50610208610203366004610eba565b610539565b6040516101719190610edc565b34801561022157600080fd5b506102086105a5565b34801561023657600080fd5b50610167610245366004610f20565b6105fd565b34801561025657600080fd5b50610167610265366004610e59565b61062e565b34801561027657600080fd5b506101d0737710d7681c81b2dff7114120bbc3ddf98f1892ca81565b34801561029e57600080fd5b506102b26102ad366004610f4a565b61064f565b005b3480156102c057600080fd5b506002546101d0906001600160a01b031681565b3480156102e057600080fd5b506101676102ef366004610e59565b6000908152600e602052604090205490565b34801561030d57600080fd5b50610167610703565b34801561032257600080fd5b50610381610331366004610e59565b600c602052600090815260409020805460018201546002830154600384015460048501546005860154600687015460079097015495966001600160a01b0390951695939492939192909160ff1688565b604080519889526001600160a01b039097166020890152958701949094526060860192909252608085015260a084015260c0830152151560e082015261010001610171565b3480156103d257600080fd5b506102b26103e1366004610e59565b61077e565b3480156103f257600080fd5b50610167610401366004610e59565b6000908152600c602052604090206005015490565b34801561042257600080fd5b506000546101d0906001600160a01b031681565b34801561044257600080fd5b50610456610451366004610e59565b610af6565b6040516101719190815181526020808301516001600160a01b03169082015260408083015190820152606080830151908201526080808301519082015260a0808301519082015260c0808301519082015260e0918201511515918101919091526101000190565b3480156104c957600080fd5b506102b26104d8366004610f4a565b610bc5565b3480156104e957600080fd5b506101d073e339d30cba24c70dccb82b234589e3c83249e65881565b6102b2610513366004610e59565b610c3e565b60006127106105278386610f82565b6105319190610f9f565b949350505050565b6001600160a01b0381166000908152600d602090815260409182902080548351818402810184019094528084526060939283018282801561059957602002820191906000526020600020905b815481526020019060010190808311610585575b50505050509050919050565b6060600f8054806020026020016040519081016040528092919081815260200182805480156105f357602002820191906000526020600020905b8154815260200190600101908083116105df575b5050505050905090565b600d602052816000526040600020818154811061061957600080fd5b90600052602060002001600091509150505481565b600f818154811061063e57600080fd5b600091825260209091200154905081565b6002546001600160a01b031633146106c05760405162461bcd60e51b815260206004820152602960248201527f4f6e6c79206f776e65722063616e206d6f6469667920746865207374616b696e6044820152686720706572696f647360b81b60648201526084015b60405180910390fd5b6000828152600e6020526040812091909155600f805460018101825591527f8d1108e10bcb7c27dddfc02ed9d693a074039d026cf4ea4240b40f7d581ac8020155565b6040516370a0823160e01b8152306004820152600090737710d7681c81b2dff7114120bbc3ddf98f1892ca906370a0823190602401602060405180830381865afa158015610755573d6000803e3d6000fd5b505050506040513d601f19601f820116820180604052508101906107799190610fc1565b905090565b6000818152600c60205260409020600101546001600160a01b031633146107f85760405162461bcd60e51b815260206004820152602860248201527f4f6e6c79207468652063726561746f722063616e206d6f6469667920746865206044820152673837b9b4ba34b7b760c11b60648201526084016106b7565b6000818152600c602052604090206007015460ff1615156001146108535760405162461bcd60e51b8152602060048201526012602482015271141bdcda5d1a5bdb881a5cc818db1bdcd95960721b60448201526064016106b7565b6000818152600c6020526040808220600701805460ff191690559054905163095ea7b360e01b81526001600160a01b0390911660048201526000196024820152737710d7681c81b2dff7114120bbc3ddf98f1892ca9063095ea7b3906044016020604051808303816000875af11580156108d1573d6000803e3d6000fd5b505050506040513d601f19601f820116820180604052508101906108f59190610fda565b5060008054828252600c602052604091829020600501549151630402806960e51b815273e339d30cba24c70dccb82b234589e3c83249e658600482015260248101929092523060448301526001600160a01b0316906380500d2090606401600060405180830381600087803b15801561096d57600080fd5b505af1158015610981573d6000803e3d6000fd5b5050506000828152600c60205260409020600301544211159050610a57576000818152600c6020526040812060068101546005909101546109c29190610ffc565b604051909150600090339083908381818185875af1925050503d8060008114610a07576040519150601f19603f3d011682016040523d82523d6000602084013e610a0c565b606091505b5050905080610a525760405162461bcd60e51b8152602060048201526012602482015271151c985b9cd858dd1a5bdb8819985a5b195960721b60448201526064016106b7565b505050565b6000818152600c60205260408082206005015490513391908381818185875af1925050503d8060008114610aa7576040519150601f19603f3d011682016040523d82523d6000602084013e610aac565b606091505b5050905080610af25760405162461bcd60e51b8152602060048201526012602482015271151c985b9cd858dd1a5bdb8819985a5b195960721b60448201526064016106b7565b5050565b610b496040518061010001604052806000815260200160006001600160a01b0316815260200160008152602001600081526020016000815260200160008152602001600081526020016000151581525090565b506000908152600c60209081526040918290208251610100810184528154815260018201546001600160a01b0316928101929092526002810154928201929092526003820154606082015260048201546080820152600582015460a0820152600682015460c082015260079091015460ff16151560e082015290565b6002546001600160a01b03163314610c295760405162461bcd60e51b815260206004820152602160248201527f4f6e6c79206f776e65722063616e206368616e676520556e6c6f636b206461746044820152606560f81b60648201526084016106b7565b6000918252600c602052604090912060030155565b6000818152600e6020526040902054610c8d5760405162461bcd60e51b815260206004820152601160248201527013585c1c1a5b99c81b9bdd08199bdd5b99607a1b60448201526064016106b7565b604051806101000160405280600b548152602001336001600160a01b031681526020014281526020018262015180610cc59190610f82565b610ccf9042610ffc565b8152602001600e6000848152602001908152602001600020548152602001348152602001610d11600e6000858152602001908152602001600020548434610518565b815260016020918201819052600b80546000908152600c84526040808220865181558686015181860180546001600160a01b0319166001600160a01b03909216919091179055868201516002820155606087015160038201556080870151600482015560a0870151600582015560c0870151600682015560e0909601516007909601805460ff191696151596909617909555338152600d845293842081548154808501835591865293852001929092558154909290610dd1908490610ffc565b90915550506000805460405163474cf53d60e01b815273e339d30cba24c70dccb82b234589e3c83249e658600482015230602482015260448101929092526001600160a01b03169063474cf53d9034906064016000604051808303818588803b158015610e3d57600080fd5b505af1158015610e51573d6000803e3d6000fd5b505050505050565b600060208284031215610e6b57600080fd5b5035919050565b600080600060608486031215610e8757600080fd5b505081359360208301359350604090920135919050565b80356001600160a01b0381168114610eb557600080fd5b919050565b600060208284031215610ecc57600080fd5b610ed582610e9e565b9392505050565b6020808252825182820181905260009190848201906040850190845b81811015610f1457835183529284019291840191600101610ef8565b50909695505050505050565b60008060408385031215610f3357600080fd5b610f3c83610e9e565b946020939093013593505050565b60008060408385031215610f5d57600080fd5b50508035926020909101359150565b634e487b7160e01b600052601160045260246000fd5b8082028115828204841417610f9957610f99610f6c565b92915050565b600082610fbc57634e487b7160e01b600052601260045260246000fd5b500490565b600060208284031215610fd357600080fd5b5051919050565b600060208284031215610fec57600080fd5b81518015158114610ed557600080fd5b80820180821115610f9957610f99610f6c56fea264697066735822122001c7aa42edce158a307338b7eb56633794bcfd6ad8636a9ea04b37299ba3b6d364736f6c63430008110033",
  "linkReferences": {},
  "deployedLinkReferences": {}
}