{
  "_format": "hh-sol-artifact-1",
  "contractName": "Transactions",
  "sourceName": "contracts/Transactions.sol",
  "abi": [
    {
      "inputs": [],
      "stateMutability": "nonpayable",
      "type": "constructor"
    },
    {
      "anonymous": false,
      "inputs": [
        {
          "indexed": false,
          "internalType": "address",
          "name": "from",
          "type": "address"
        },
        {
          "indexed": false,
          "internalType": "address",
          "name": "receiver",
          "type": "address"
        },
        {
          "indexed": false,
          "internalType": "uint256",
          "name": "amount",
          "type": "uint256"
        },
        {
          "indexed": false,
          "internalType": "string",
          "name": "message",
          "type": "string"
        },
        {
          "indexed": false,
          "internalType": "uint256",
          "name": "timestamp",
          "type": "uint256"
        }
      ],
      "name": "Transfer",
      "type": "event"
    },
    {
      "inputs": [
        {
          "internalType": "uint256",
          "name": "amount",
          "type": "uint256"
        },
        {
          "internalType": "string",
          "name": "message",
          "type": "string"
        }
      ],
      "name": "addToBlockchain",
      "outputs": [],
      "stateMutability": "nonpayable",
      "type": "function"
    },
    {
      "inputs": [],
      "name": "getAllTransactions",
      "outputs": [
        {
          "components": [
            {
              "internalType": "address",
              "name": "sender",
              "type": "address"
            },
            {
              "internalType": "address",
              "name": "receiver",
              "type": "address"
            },
            {
              "internalType": "uint256",
              "name": "amount",
              "type": "uint256"
            },
            {
              "internalType": "string",
              "name": "message",
              "type": "string"
            },
            {
              "internalType": "uint256",
              "name": "timestamp",
              "type": "uint256"
            }
          ],
          "internalType": "struct Transactions.TransferStruct[]",
          "name": "",
          "type": "tuple[]"
        }
      ],
      "stateMutability": "view",
      "type": "function"
    },
    {
      "inputs": [],
      "name": "getTransactionCount",
      "outputs": [
        {
          "internalType": "uint256",
          "name": "",
          "type": "uint256"
        }
      ],
      "stateMutability": "view",
      "type": "function"
    },
    {
      "inputs": [],
      "name": "withdraw",
      "outputs": [],
      "stateMutability": "payable",
      "type": "function"
    }
  ],
  "bytecode": "0x608060405234801561001057600080fd5b50600180546001600160a01b03191633179055610769806100326000396000f3fe60806040526004361061003f5760003560e01c806327506f53146100445780632e7700f01461006f5780633ccfd60b1461008d578063864826cf14610097575b600080fd5b34801561005057600080fd5b506100596100b7565b6040516100669190610407565b60405180910390f35b34801561007b57600080fd5b50600054604051908152602001610066565b6100956101e0565b005b3480156100a357600080fd5b506100956100b23660046104c3565b61024f565b60606002805480602002602001604051908101604052809291908181526020016000905b828210156101d75760008481526020908190206040805160a0810182526005860290920180546001600160a01b0390811684526001820154169383019390935260028301549082015260038201805491929160608401919061013c9061057e565b80601f01602080910402602001604051908101604052809291908181526020018280546101689061057e565b80156101b55780601f1061018a576101008083540402835291602001916101b5565b820191906000526020600020905b81548152906001019060200180831161019857829003601f168201915b50505050508152602001600482015481525050815260200190600101906100db565b50505050905090565b6001546001600160a01b031633146101f757600080fd5b604051600090339047908381818185875af1925050503d8060008114610239576040519150601f19603f3d011682016040523d82523d6000602084013e61023e565b606091505b505090508061024c57600080fd5b50565b600160008082825461026191906105b8565b90915550506040805160a08101825233815230602082019081529181018481526060820184815242608084015260028054600181018255600091909152835160059091027f405787fa12a823e0f2b7631cc41b3ba8828b3321ca811111fa75cd3aa3bb5ace810180546001600160a01b039384166001600160a01b031991821617825596517f405787fa12a823e0f2b7631cc41b3ba8828b3321ca811111fa75cd3aa3bb5acf830180549190941697169690961790915591517f405787fa12a823e0f2b7631cc41b3ba8828b3321ca811111fa75cd3aa3bb5ad0830155519192917f405787fa12a823e0f2b7631cc41b3ba8828b3321ca811111fa75cd3aa3bb5ad190910190610371908261062e565b506080820151816004015550507fc4b32d7ff75a51e487f3cbb5d3202f2efecca1f4c2b987e0039c1d3220b48a8333308484426040516103b59594939291906106ee565b60405180910390a15050565b6000815180845260005b818110156103e7576020818501810151868301820152016103cb565b506000602082860101526020601f19601f83011685010191505092915050565b60006020808301818452808551808352604092508286019150828160051b87010184880160005b8381101561049f57888303603f19018552815180516001600160a01b039081168552888201511688850152868101518785015260608082015160a0828701819052919061047d838801826103c1565b608094850151979094019690965250509487019492509086019060010161042e565b509098975050505050505050565b634e487b7160e01b600052604160045260246000fd5b600080604083850312156104d657600080fd5b82359150602083013567ffffffffffffffff808211156104f557600080fd5b818501915085601f83011261050957600080fd5b81358181111561051b5761051b6104ad565b604051601f8201601f19908116603f01168101908382118183101715610543576105436104ad565b8160405282815288602084870101111561055c57600080fd5b8260208601602083013760006020848301015280955050505050509250929050565b600181811c9082168061059257607f821691505b6020821081036105b257634e487b7160e01b600052602260045260246000fd5b50919050565b808201808211156105d957634e487b7160e01b600052601160045260246000fd5b92915050565b601f82111561062957600081815260208120601f850160051c810160208610156106065750805b601f850160051c820191505b8181101561062557828155600101610612565b5050505b505050565b815167ffffffffffffffff811115610648576106486104ad565b61065c81610656845461057e565b846105df565b602080601f83116001811461069157600084156106795750858301515b600019600386901b1c1916600185901b178555610625565b600085815260208120601f198616915b828110156106c0578886015182559484019460019091019084016106a1565b50858210156106de5787850151600019600388901b60f8161c191681555b5050505050600190811b01905550565b6001600160a01b038681168252851660208201526040810184905260a060608201819052600090610721908301856103c1565b9050826080830152969550505050505056fea26469706673582212209b578ebd15002fef47c0f28250bc83cd64cdfa4c5a413d23a843a8439506d71e64736f6c63430008110033",
  "linkReferences": {},
  "deployedLinkReferences": {}
}