{
  "_format": "hh-sol-artifact-1",
  "contractName": "MockPensionFi",
  "sourceName": "contracts/mocks/MockPensionFi.sol",
  "abi": [
    {
      "inputs": [],
      "stateMutability": "payable",
      "type": "constructor"
    },
    {
      "inputs": [
        {
          "internalType": "uint256",
          "name": "basisPoints",
          "type": "uint256"
        },
        {
          "internalType": "uint256",
          "name": "numDays",
          "type": "uint256"
        },
        {
          "internalType": "uint256",
          "name": "weiAmount",
          "type": "uint256"
        }
      ],
      "name": "calculateInterest",
      "outputs": [
        {
          "internalType": "uint256",
          "name": "",
          "type": "uint256"
        }
      ],
      "stateMutability": "pure",
      "type": "function"
    },
    {
      "inputs": [
        {
          "internalType": "uint256",
          "name": "numDays",
          "type": "uint256"
        },
        {
          "internalType": "uint256",
          "name": "basisPoints",
          "type": "uint256"
        }
      ],
      "name": "changeLockPeriods",
      "outputs": [],
      "stateMutability": "nonpayable",
      "type": "function"
    },
    {
      "inputs": [
        {
          "internalType": "uint256",
          "name": "positionId",
          "type": "uint256"
        },
        {
          "internalType": "uint256",
          "name": "newUnlockDate",
          "type": "uint256"
        }
      ],
      "name": "changeUnlockDate",
      "outputs": [],
      "stateMutability": "nonpayable",
      "type": "function"
    },
    {
      "inputs": [
        {
          "internalType": "uint256",
          "name": "positionId",
          "type": "uint256"
        }
      ],
      "name": "closePosition",
      "outputs": [],
      "stateMutability": "nonpayable",
      "type": "function"
    },
    {
      "inputs": [],
      "name": "currentPositionId",
      "outputs": [
        {
          "internalType": "uint256",
          "name": "",
          "type": "uint256"
        }
      ],
      "stateMutability": "view",
      "type": "function"
    },
    {
      "inputs": [
        {
          "internalType": "address",
          "name": "walletAddress",
          "type": "address"
        }
      ],
      "name": "getAllPositionIdsByAddress",
      "outputs": [
        {
          "internalType": "uint256[]",
          "name": "",
          "type": "uint256[]"
        }
      ],
      "stateMutability": "view",
      "type": "function"
    },
    {
      "inputs": [
        {
          "internalType": "uint256",
          "name": "numDays",
          "type": "uint256"
        }
      ],
      "name": "getInterestRates",
      "outputs": [
        {
          "internalType": "uint256",
          "name": "",
          "type": "uint256"
        }
      ],
      "stateMutability": "view",
      "type": "function"
    },
    {
      "inputs": [],
      "name": "getLockPeriods",
      "outputs": [
        {
          "internalType": "uint256[]",
          "name": "",
          "type": "uint256[]"
        }
      ],
      "stateMutability": "view",
      "type": "function"
    },
    {
      "inputs": [
        {
          "internalType": "uint256",
          "name": "positionId",
          "type": "uint256"
        }
      ],
      "name": "getPositionById",
      "outputs": [
        {
          "components": [
            {
              "internalType": "uint256",
              "name": "positionId",
              "type": "uint256"
            },
            {
              "internalType": "address",
              "name": "walletAddress",
              "type": "address"
            },
            {
              "internalType": "uint256",
              "name": "createdDate",
              "type": "uint256"
            },
            {
              "internalType": "uint256",
              "name": "unlockDate",
              "type": "uint256"
            },
            {
              "internalType": "uint256",
              "name": "percentInterest",
              "type": "uint256"
            },
            {
              "internalType": "uint256",
              "name": "weiStaked",
              "type": "uint256"
            },
            {
              "internalType": "uint256",
              "name": "weiInterest",
              "type": "uint256"
            },
            {
              "internalType": "bool",
              "name": "open",
              "type": "bool"
            }
          ],
          "internalType": "struct MockPensionFi.Position",
          "name": "",
          "type": "tuple"
        }
      ],
      "stateMutability": "view",
      "type": "function"
    },
    {
      "inputs": [
        {
          "internalType": "uint256",
          "name": "positionId",
          "type": "uint256"
        }
      ],
      "name": "getWeiFromPosition",
      "outputs": [
        {
          "internalType": "uint256",
          "name": "",
          "type": "uint256"
        }
      ],
      "stateMutability": "view",
      "type": "function"
    },
    {
      "inputs": [
        {
          "internalType": "uint256",
          "name": "",
          "type": "uint256"
        }
      ],
      "name": "lockPeriods",
      "outputs": [
        {
          "internalType": "uint256",
          "name": "",
          "type": "uint256"
        }
      ],
      "stateMutability": "view",
      "type": "function"
    },
    {
      "inputs": [],
      "name": "owner",
      "outputs": [
        {
          "internalType": "address",
          "name": "",
          "type": "address"
        }
      ],
      "stateMutability": "view",
      "type": "function"
    },
    {
      "inputs": [
        {
          "internalType": "address",
          "name": "",
          "type": "address"
        },
        {
          "internalType": "uint256",
          "name": "",
          "type": "uint256"
        }
      ],
      "name": "positionIdsByAddress",
      "outputs": [
        {
          "internalType": "uint256",
          "name": "",
          "type": "uint256"
        }
      ],
      "stateMutability": "view",
      "type": "function"
    },
    {
      "inputs": [
        {
          "internalType": "uint256",
          "name": "",
          "type": "uint256"
        }
      ],
      "name": "positions",
      "outputs": [
        {
          "internalType": "uint256",
          "name": "positionId",
          "type": "uint256"
        },
        {
          "internalType": "address",
          "name": "walletAddress",
          "type": "address"
        },
        {
          "internalType": "uint256",
          "name": "createdDate",
          "type": "uint256"
        },
        {
          "internalType": "uint256",
          "name": "unlockDate",
          "type": "uint256"
        },
        {
          "internalType": "uint256",
          "name": "percentInterest",
          "type": "uint256"
        },
        {
          "internalType": "uint256",
          "name": "weiStaked",
          "type": "uint256"
        },
        {
          "internalType": "uint256",
          "name": "weiInterest",
          "type": "uint256"
        },
        {
          "internalType": "bool",
          "name": "open",
          "type": "bool"
        }
      ],
      "stateMutability": "view",
      "type": "function"
    },
    {
      "inputs": [
        {
          "internalType": "uint256",
          "name": "numDays",
          "type": "uint256"
        }
      ],
      "name": "stakeEther",
      "outputs": [],
      "stateMutability": "payable",
      "type": "function"
    },
    {
      "inputs": [
        {
          "internalType": "uint256",
          "name": "",
          "type": "uint256"
        }
      ],
      "name": "tiers",
      "outputs": [
        {
          "internalType": "uint256",
          "name": "",
          "type": "uint256"
        }
      ],
      "stateMutability": "view",
      "type": "function"
    },
    {
      "stateMutability": "payable",
      "type": "receive"
    }
  ],
  "bytecode": "0x6080604052600080546001600160a01b031916331781556009819055600c6020526102bc7f335c01f32f99d35cb64d8289b566f377b69a60a868ff865828ab37e34e93e1db556103e87fb6fee850c592782285e2afa4b9b9fe57677af9af6c836afb1b518cff893d6d36556104b07fe4423415728c49c18cd02e113656de33bf0a2c7d8797378ec80235aae0ce917a55600d80546001818101835592829052601e7fd7b6990105719101dabeb77144f2a3385c8033acd3af97e9423a695e81ad1eb59182015581548084018355605a90820155815492830190915561016d910155610d0c806100ef6000396000f3fe6080604052600436106100f75760003560e01c80638da5cb5b1161008a578063ab4185df11610059578063ab4185df14610352578063b838ec8614610382578063c7c9d05514610409578063e4f908411461042957600080fd5b80638da5cb5b1461021d57806395ad86e01461025557806399fbab8814610282578063a126d6011461033257600080fd5b806341ee13be116100c657806341ee13be146101a657806345eae373146101bb5780634c8f2a78146101db57806364db2c5b146101fb57600080fd5b8063039af9eb1461010357806305e1bd8c146101435780631131c8cd1461016357806320f9f8941461017957600080fd5b366100fe57005b600080fd5b34801561010f57600080fd5b5061013061011e366004610b5b565b600c6020526000908152604090205481565b6040519081526020015b60405180910390f35b34801561014f57600080fd5b5061013061015e366004610b74565b61043c565b34801561016f57600080fd5b5061013060095481565b34801561018557600080fd5b50610199610194366004610bbc565b61045d565b60405161013a9190610bde565b3480156101b257600080fd5b506101996104c9565b3480156101c757600080fd5b506101306101d6366004610c22565b610521565b3480156101e757600080fd5b506101306101f6366004610b5b565b610552565b34801561020757600080fd5b5061021b610216366004610c4c565b610573565b005b34801561022957600080fd5b5060005461023d906001600160a01b031681565b6040516001600160a01b03909116815260200161013a565b34801561026157600080fd5b50610130610270366004610b5b565b6000908152600c602052604090205490565b34801561028e57600080fd5b506102ed61029d366004610b5b565b600a602052600090815260409020805460018201546002830154600384015460048501546005860154600687015460079097015495966001600160a01b0390951695939492939192909160ff1688565b604080519889526001600160a01b039097166020890152958701949094526060860192909252608085015260a084015260c0830152151560e08201526101000161013a565b34801561033e57600080fd5b5061021b61034d366004610b5b565b610627565b34801561035e57600080fd5b5061013061036d366004610b5b565b6000908152600a602052604090206005015490565b34801561038e57600080fd5b506103a261039d366004610b5b565b610878565b60405161013a9190815181526020808301516001600160a01b03169082015260408083015190820152606080830151908201526080808301519082015260a0808301519082015260c0808301519082015260e0918201511515918101919091526101000190565b34801561041557600080fd5b5061021b610424366004610c4c565b610947565b61021b610437366004610b5b565b6109c0565b600061271061044b8386610c84565b6104559190610ca1565b949350505050565b6001600160a01b0381166000908152600b60209081526040918290208054835181840281018401909452808452606093928301828280156104bd57602002820191906000526020600020905b8154815260200190600101908083116104a9575b50505050509050919050565b6060600d80548060200260200160405190810160405280929190818152602001828054801561051757602002820191906000526020600020905b815481526020019060010190808311610503575b5050505050905090565b600b602052816000526040600020818154811061053d57600080fd5b90600052602060002001600091509150505481565b600d818154811061056257600080fd5b600091825260209091200154905081565b6000546001600160a01b031633146105e45760405162461bcd60e51b815260206004820152602960248201527f4f6e6c79206f776e65722063616e206d6f6469667920746865207374616b696e6044820152686720706572696f647360b81b60648201526084015b60405180910390fd5b6000828152600c6020526040812091909155600d805460018101825591527fd7b6990105719101dabeb77144f2a3385c8033acd3af97e9423a695e81ad1eb50155565b6000818152600a60205260409020600101546001600160a01b031633146106a15760405162461bcd60e51b815260206004820152602860248201527f4f6e6c79207468652063726561746f722063616e206d6f6469667920746865206044820152673837b9b4ba34b7b760c11b60648201526084016105db565b6000818152600a602052604090206007015460ff1615156001146106fc5760405162461bcd60e51b8152602060048201526012602482015271141bdcda5d1a5bdb881a5cc818db1bdcd95960721b60448201526064016105db565b6000818152600a6020526040902060078101805460ff19169055600301544211156107d9576000818152600a6020526040812060068101546005909101546107449190610cc3565b604051909150600090339083908381818185875af1925050503d8060008114610789576040519150601f19603f3d011682016040523d82523d6000602084013e61078e565b606091505b50509050806107d45760405162461bcd60e51b8152602060048201526012602482015271151c985b9cd858dd1a5bdb8819985a5b195960721b60448201526064016105db565b505050565b6000818152600a60205260408082206005015490513391908381818185875af1925050503d8060008114610829576040519150601f19603f3d011682016040523d82523d6000602084013e61082e565b606091505b50509050806108745760405162461bcd60e51b8152602060048201526012602482015271151c985b9cd858dd1a5bdb8819985a5b195960721b60448201526064016105db565b5050565b6108cb6040518061010001604052806000815260200160006001600160a01b0316815260200160008152602001600081526020016000815260200160008152602001600081526020016000151581525090565b506000908152600a60209081526040918290208251610100810184528154815260018201546001600160a01b0316928101929092526002810154928201929092526003820154606082015260048201546080820152600582015460a0820152600682015460c082015260079091015460ff16151560e082015290565b6000546001600160a01b031633146109ab5760405162461bcd60e51b815260206004820152602160248201527f4f6e6c79206f776e65722063616e206368616e676520556e6c6f636b206461746044820152606560f81b60648201526084016105db565b6000918252600a602052604090912060030155565b6000818152600c6020526040902054610a0f5760405162461bcd60e51b815260206004820152601160248201527013585c1c1a5b99c81b9bdd08199bdd5b99607a1b60448201526064016105db565b6040518061010001604052806009548152602001336001600160a01b031681526020014281526020018262015180610a479190610c84565b610a519042610cc3565b8152602001600c6000848152602001908152602001600020548152602001348152602001610a93600c600085815260200190815260200160002054843461043c565b815260016020918201819052600980546000908152600a84526040808220865181558686015181860180546001600160a01b0319166001600160a01b03909216919091179055868201516002820155606087015160038201556080870151600482015560a0870151600582015560c0870151600682015560e0909601516007909601805460ff191696151596909617909555338152600b845293842081548154808501835591865293852001929092558154909290610b53908490610cc3565b909155505050565b600060208284031215610b6d57600080fd5b5035919050565b600080600060608486031215610b8957600080fd5b505081359360208301359350604090920135919050565b80356001600160a01b0381168114610bb757600080fd5b919050565b600060208284031215610bce57600080fd5b610bd782610ba0565b9392505050565b6020808252825182820181905260009190848201906040850190845b81811015610c1657835183529284019291840191600101610bfa565b50909695505050505050565b60008060408385031215610c3557600080fd5b610c3e83610ba0565b946020939093013593505050565b60008060408385031215610c5f57600080fd5b50508035926020909101359150565b634e487b7160e01b600052601160045260246000fd5b8082028115828204841417610c9b57610c9b610c6e565b92915050565b600082610cbe57634e487b7160e01b600052601260045260246000fd5b500490565b80820180821115610c9b57610c9b610c6e56fea26469706673582212209e0dabbdd17bf5f30b9175a5baac42cba9dd582e6374a654bc701932c9ac30b264736f6c63430008110033",
  "linkReferences": {},
  "deployedLinkReferences": {}
}